{
  "contractName": "CRUD",
  "abi": [
    {
      "constant": true,
      "inputs": [],
      "name": "nextId",
      "outputs": [
        {
          "internalType": "uint256",
          "name": "",
          "type": "uint256"
        }
      ],
      "payable": false,
      "stateMutability": "view",
      "type": "function"
    },
    {
      "constant": true,
      "inputs": [],
      "name": "users",
      "outputs": [
        {
          "internalType": "uint256",
          "name": "userId",
          "type": "uint256"
        },
        {
          "internalType": "string",
          "name": "username",
          "type": "string"
        }
      ],
      "payable": false,
      "stateMutability": "view",
      "type": "function"
    },
    {
      "constant": false,
      "inputs": [
        {
          "internalType": "string",
          "name": "username",
          "type": "string"
        }
      ],
      "name": "create_User",
      "outputs": [],
      "payable": false,
      "stateMutability": "nonpayable",
      "type": "function"
    },
    {
      "constant": true,
      "inputs": [],
      "name": "read_Userdata",
      "outputs": [
        {
          "internalType": "uint256",
          "name": "",
          "type": "uint256"
        },
        {
          "internalType": "string",
          "name": "",
          "type": "string"
        }
      ],
      "payable": false,
      "stateMutability": "view",
      "type": "function"
    }
  ],
  "bytecode": "0x60806040526040518060400160405280600181526020016040518060400160405280600481526020017f446979750000000000000000000000000000000000000000000000000000000081525081525060008082015181600001556020820151816001019080519060200190610076929190610090565b505050600160025534801561008a57600080fd5b50610135565b828054600181600116156101000203166002900490600052602060002090601f016020900481019282601f106100d157805160ff19168380011785556100ff565b828001600101855582156100ff579182015b828111156100fe5782518255916020019190600101906100e3565b5b50905061010c9190610110565b5090565b61013291905b8082111561012e576000816000905550600101610116565b5090565b90565b610497806101446000396000f3fe608060405234801561001057600080fd5b506004361061004c5760003560e01c80635f58aed61461005157806361b8ce8c146100db578063bfc97785146100f9578063f2020275146101b4575b600080fd5b61005961023e565b6040518083815260200180602001828103825283818151815260200191508051906020019080838360005b8381101561009f578082015181840152602081019050610084565b50505050905090810190601f1680156100cc5780820380516001836020036101000a031916815260200191505b50935050505060405180910390f35b6100e36102f0565b6040518082815260200191505060405180910390f35b6101b26004803603602081101561010f57600080fd5b810190808035906020019064010000000081111561012c57600080fd5b82018360208201111561013e57600080fd5b8035906020019184600183028401116401000000008311171561016057600080fd5b91908080601f016020809104026020016040519081016040528093929190818152602001838380828437600081840152601f19601f8201169050808301925050505050505091929192905050506102f6565b005b6101bc610313565b6040518083815260200180602001828103825283818151815260200191508051906020019080838360005b838110156102025780820151818401526020810190506101e7565b50505050905090810190601f16801561022f5780820380516001836020036101000a031916815260200191505b50935050505060405180910390f35b6000606060008001546000600101808054600181600116156101000203166002900480601f0160208091040260200160405190810160405280929190818152602001828054600181600116156101000203166002900480156102e15780601f106102b6576101008083540402835291602001916102e1565b820191906000526020600020905b8154815290600101906020018083116102c457829003601f168201915b50505050509050915091509091565b60025481565b806000600101908051906020019061030f9291906103bd565b5050565b6000806000015490806001018054600181600116156101000203166002900480601f0160208091040260200160405190810160405280929190818152602001828054600181600116156101000203166002900480156103b35780601f10610388576101008083540402835291602001916103b3565b820191906000526020600020905b81548152906001019060200180831161039657829003601f168201915b5050505050905082565b828054600181600116156101000203166002900490600052602060002090601f016020900481019282601f106103fe57805160ff191683800117855561042c565b8280016001018555821561042c579182015b8281111561042b578251825591602001919060010190610410565b5b509050610439919061043d565b5090565b61045f91905b8082111561045b576000816000905550600101610443565b5090565b9056fea265627a7a72315820ebf1b277636f422d8d766ce4bd4d1b1052826c46334aaff5afec25a2f4c9d02964736f6c63430005100032",
  "source": "pragma solidity ^0.5.0;\r\n\r\ncontract CRUD{\r\n\r\n struct User{\r\n     uint userId;//patient P_NO;doc D_NO,I_NO;\r\n     string username;\r\n }\r\n\r\nUser public users=User({userId:1,username:\"Diyu\"});\r\nuint public nextId=1;\r\n\r\n//add User(patient,Doctor,Insurance_Agent)\r\nfunction create_User(string memory username)public{\r\n    // users.push(User(nextId,username));\r\n    // nextId++;\r\n    // }\r\n    users.username=username;}\r\n    \r\n//find user by passing ID\r\n\r\nfunction read_Userdata() view public returns (uint,string memory)\r\n{\r\n    // if(users.length>0){\r\n        // uint i = 0;\r\n    return(users.userId,users.username);\r\n    // }\r\n    // return (0,\"None\");\r\n}\r\n\r\n//Update username by passing ID and updated name;\r\n\r\n// function update_Userdata(uint userId,string memory _username)public {\r\n//     uint i = find_Id(userId);\r\n//    users[i].username = _username;\r\n// }\r\n\r\n// // delete user;\r\n// function delete_User(uint userId) public\r\n// {\r\n//     uint i = find_Id(userId);\r\n//     delete users[i];\r\n// }\r\n\r\n// //finding the id \r\n// function find_Id(uint _userId) view internal returns(uint){\r\n//     for(uint i=0;i<users.length;i++)\r\n//     {\r\n//         if(users[i].userId == _userId)\r\n//         {\r\n//             return i;\r\n//         }\r\n//     }\r\n//     revert('User does not exists!');\r\n// }\r\n}\r\n//create events \r\n\r\n//write functions with modifiers\r\n\r\n//IPFS storage\r\n\r\n",
  "sourcePath": "E:/BE_project/project/contracts/CRUD.sol",
  "compiler": {
    "name": "solc",
    "version": "0.5.16+commit.9c3226ce.Emscripten.clang"
  },
  "schemaVersion": "3.3.1",
  "updatedAt": "2021-03-12T20:10:29.759Z",
  "devdoc": {
    "methods": {}
  },
  "userdoc": {
    "methods": {}
  }
}