{
  "contractName": "Healthcare",
  "abi": [
    {
      "inputs": [],
      "stateMutability": "nonpayable",
      "type": "constructor"
    },
    {
      "inputs": [
        {
          "internalType": "string",
          "name": "userName",
          "type": "string"
        },
        {
          "internalType": "address",
          "name": "userAddr",
          "type": "address"
        },
        {
          "internalType": "string",
          "name": "userRole",
          "type": "string"
        }
      ],
      "name": "addUser",
      "outputs": [],
      "stateMutability": "nonpayable",
      "type": "function"
    },
    {
      "inputs": [
        {
          "internalType": "string",
          "name": "fName",
          "type": "string"
        },
        {
          "internalType": "string",
          "name": "mName",
          "type": "string"
        },
        {
          "internalType": "string",
          "name": "lName",
          "type": "string"
        },
        {
          "internalType": "bool",
          "name": "gender",
          "type": "bool"
        },
        {
          "internalType": "uint8",
          "name": "age",
          "type": "uint8"
        }
      ],
      "name": "updateUserInfo",
      "outputs": [],
      "stateMutability": "nonpayable",
      "type": "function"
    },
    {
      "inputs": [],
      "name": "showUsersCount",
      "outputs": [
        {
          "internalType": "uint256",
          "name": "",
          "type": "uint256"
        }
      ],
      "stateMutability": "view",
      "type": "function"
    },
    {
      "inputs": [
        {
          "internalType": "address",
          "name": "userAddr",
          "type": "address"
        }
      ],
      "name": "showAccInfo",
      "outputs": [
        {
          "internalType": "address",
          "name": "Account",
          "type": "address"
        },
        {
          "internalType": "string",
          "name": "UserName",
          "type": "string"
        },
        {
          "internalType": "string",
          "name": "UserRole",
          "type": "string"
        }
      ],
      "stateMutability": "view",
      "type": "function"
    },
    {
      "inputs": [
        {
          "internalType": "address",
          "name": "userAddr",
          "type": "address"
        }
      ],
      "name": "showPersonalInfo",
      "outputs": [
        {
          "internalType": "string",
          "name": "FirstName",
          "type": "string"
        },
        {
          "internalType": "string",
          "name": "MiddleName",
          "type": "string"
        },
        {
          "internalType": "string",
          "name": "LastName",
          "type": "string"
        },
        {
          "internalType": "string",
          "name": "Gender",
          "type": "string"
        },
        {
          "internalType": "uint8",
          "name": "Age",
          "type": "uint8"
        }
      ],
      "stateMutability": "view",
      "type": "function"
    }
  ],
  "bytecode": "0x608060405233600260006101000a81548173ffffffffffffffffffffffffffffffffffffffff021916908373ffffffffffffffffffffffffffffffffffffffff1602179055503480156200005257600080fd5b5060006001819055506003604051806101000160405280600260009054906101000a900473ffffffffffffffffffffffffffffffffffffffff1673ffffffffffffffffffffffffffffffffffffffff1681526020016040518060400160405280600581526020017f41646d696e00000000000000000000000000000000000000000000000000000081525081526020016040518060400160405280600581526020017f41646d696e00000000000000000000000000000000000000000000000000000081525081526020016040518060400160405280600581526020017f41646d696e00000000000000000000000000000000000000000000000000000081525081526020016040518060400160405280600581526020017f41646d696e00000000000000000000000000000000000000000000000000000081525081526020016040518060400160405280600581526020017f41646d696e0000000000000000000000000000000000000000000000000000008152508152602001600015158152602001600060ff16815250908060018154018082558091505060019003906000526020600020906007020160009091909190915060008201518160000160006101000a81548173ffffffffffffffffffffffffffffffffffffffff021916908373ffffffffffffffffffffffffffffffffffffffff16021790555060208201518160010190805190602001906200026d92919062000333565b5060408201518160020190805190602001906200028c92919062000333565b506060820151816003019080519060200190620002ab92919062000333565b506080820151816004019080519060200190620002ca92919062000333565b5060a0820151816005019080519060200190620002e992919062000333565b5060c08201518160060160006101000a81548160ff02191690831515021790555060e08201518160060160016101000a81548160ff021916908360ff160217905550505062000448565b8280546200034190620003e3565b90600052602060002090601f016020900481019282620003655760008555620003b1565b82601f106200038057805160ff1916838001178555620003b1565b82800160010185558215620003b1579182015b82811115620003b057825182559160200191906001019062000393565b5b509050620003c09190620003c4565b5090565b5b80821115620003df576000816000905550600101620003c5565b5090565b60006002820490506001821680620003fc57607f821691505b6020821081141562000413576200041262000419565b5b50919050565b7f4e487b7100000000000000000000000000000000000000000000000000000000600052602260045260246000fd5b61179e80620004586000396000f3fe608060405234801561001057600080fd5b50600436106100575760003560e01c8063023a3bf51461005c578063200b0ff2146100905780636616c266146100ae578063b087a2ed146100ca578063d4b31731146100fc575b600080fd5b61007660048036038101906100719190611005565b610118565b6040516100879594939291906112a3565b60405180910390f35b61009861052c565b6040516100a59190611392565b60405180910390f35b6100c860048036038101906100c391906110ad565b610536565b005b6100e460048036038101906100df9190611005565b6107ac565b6040516100f39392919061125e565b60405180910390f35b6101166004803603810190610111919061102e565b610ad5565b005b6060806060806000806000808873ffffffffffffffffffffffffffffffffffffffff1673ffffffffffffffffffffffffffffffffffffffff16815260200190815260200160002054905060606003828154811061019e577f4e487b7100000000000000000000000000000000000000000000000000000000600052603260045260246000fd5b906000526020600020906007020160060160009054906101000a900460ff16156101ff576040518060400160405280600681526020017f46656d616c6500000000000000000000000000000000000000000000000000008152509050610238565b6040518060400160405280600481526020017f4d616c650000000000000000000000000000000000000000000000000000000081525090505b60038281548110610272577f4e487b7100000000000000000000000000000000000000000000000000000000600052603260045260246000fd5b9060005260206000209060070201600301600383815481106102bd577f4e487b7100000000000000000000000000000000000000000000000000000000600052603260045260246000fd5b906000526020600020906007020160040160038481548110610308577f4e487b7100000000000000000000000000000000000000000000000000000000600052603260045260246000fd5b90600052602060002090600702016005018360038681548110610354577f4e487b7100000000000000000000000000000000000000000000000000000000600052603260045260246000fd5b906000526020600020906007020160060160019054906101000a900460ff1684805461037f9061150c565b80601f01602080910402602001604051908101604052809291908181526020018280546103ab9061150c565b80156103f85780601f106103cd576101008083540402835291602001916103f8565b820191906000526020600020905b8154815290600101906020018083116103db57829003601f168201915b5050505050945083805461040b9061150c565b80601f01602080910402602001604051908101604052809291908181526020018280546104379061150c565b80156104845780601f1061045957610100808354040283529160200191610484565b820191906000526020600020905b81548152906001019060200180831161046757829003601f168201915b505050505093508280546104979061150c565b80601f01602080910402602001604051908101604052809291908181526020018280546104c39061150c565b80156105105780601f106104e557610100808354040283529160200191610510565b820191906000526020600020905b8154815290600101906020018083116104f357829003601f168201915b5050505050925096509650965096509650505091939590929450565b6000600154905090565b60008060003373ffffffffffffffffffffffffffffffffffffffff1673ffffffffffffffffffffffffffffffffffffffff16815260200190815260200160002054905060008114156105bd576040517f08c379a00000000000000000000000000000000000000000000000000000000081526004016105b490611352565b60405180910390fd5b85600382815481106105f8577f4e487b7100000000000000000000000000000000000000000000000000000000600052603260045260246000fd5b9060005260206000209060070201600301908051906020019061061c929190610ebb565b508460038281548110610658577f4e487b7100000000000000000000000000000000000000000000000000000000600052603260045260246000fd5b9060005260206000209060070201600401908051906020019061067c929190610ebb565b5083600382815481106106b8577f4e487b7100000000000000000000000000000000000000000000000000000000600052603260045260246000fd5b906000526020600020906007020160050190805190602001906106dc929190610ebb565b508260038281548110610718577f4e487b7100000000000000000000000000000000000000000000000000000000600052603260045260246000fd5b906000526020600020906007020160060160006101000a81548160ff021916908315150217905550816003828154811061077b577f4e487b7100000000000000000000000000000000000000000000000000000000600052603260045260246000fd5b906000526020600020906007020160060160016101000a81548160ff021916908360ff160217905550505050505050565b60006060808373ffffffffffffffffffffffffffffffffffffffff163373ffffffffffffffffffffffffffffffffffffffff1614801561082b575060008060008673ffffffffffffffffffffffffffffffffffffffff1673ffffffffffffffffffffffffffffffffffffffff1681526020019081526020016000205414155b61086a576040517f08c379a000000000000000000000000000000000000000000000000000000000815260040161086190611372565b60405180910390fd5b60008060008673ffffffffffffffffffffffffffffffffffffffff1673ffffffffffffffffffffffffffffffffffffffff168152602001908152602001600020549050600381815481106108e7577f4e487b7100000000000000000000000000000000000000000000000000000000600052603260045260246000fd5b906000526020600020906007020160000160009054906101000a900473ffffffffffffffffffffffffffffffffffffffff1660038281548110610953577f4e487b7100000000000000000000000000000000000000000000000000000000600052603260045260246000fd5b90600052602060002090600702016001016003838154811061099e577f4e487b7100000000000000000000000000000000000000000000000000000000600052603260045260246000fd5b90600052602060002090600702016002018180546109bb9061150c565b80601f01602080910402602001604051908101604052809291908181526020018280546109e79061150c565b8015610a345780601f10610a0957610100808354040283529160200191610a34565b820191906000526020600020905b815481529060010190602001808311610a1757829003601f168201915b50505050509150808054610a479061150c565b80601f0160208091040260200160405190810160405280929190818152602001828054610a739061150c565b8015610ac05780601f10610a9557610100808354040283529160200191610ac0565b820191906000526020600020905b815481529060010190602001808311610aa357829003601f168201915b50505050509050935093509350509193909250565b60008060008473ffffffffffffffffffffffffffffffffffffffff1673ffffffffffffffffffffffffffffffffffffffff16815260200190815260200160002054148015610b715750600260009054906101000a900473ffffffffffffffffffffffffffffffffffffffff1673ffffffffffffffffffffffffffffffffffffffff163373ffffffffffffffffffffffffffffffffffffffff1614155b610bb0576040517f08c379a0000000000000000000000000000000000000000000000000000000008152600401610ba790611312565b60405180910390fd5b3373ffffffffffffffffffffffffffffffffffffffff168273ffffffffffffffffffffffffffffffffffffffff1614610c1e576040517f08c379a0000000000000000000000000000000000000000000000000000000008152600401610c1590611332565b60405180910390fd5b6003805490506000808473ffffffffffffffffffffffffffffffffffffffff1673ffffffffffffffffffffffffffffffffffffffff1681526020019081526020016000208190555060036040518061010001604052808473ffffffffffffffffffffffffffffffffffffffff1681526020018581526020018381526020016040518060400160405280600a81526020017f4669727374204e616d650000000000000000000000000000000000000000000081525081526020016040518060400160405280600b81526020017f4d6964646c65204e616d6500000000000000000000000000000000000000000081525081526020016040518060400160405280600981526020017f4c617374204e616d6500000000000000000000000000000000000000000000008152508152602001600015158152602001600060ff16815250908060018154018082558091505060019003906000526020600020906007020160009091909190915060008201518160000160006101000a81548173ffffffffffffffffffffffffffffffffffffffff021916908373ffffffffffffffffffffffffffffffffffffffff1602179055506020820151816001019080519060200190610dea929190610ebb565b506040820151816002019080519060200190610e07929190610ebb565b506060820151816003019080519060200190610e24929190610ebb565b506080820151816004019080519060200190610e41929190610ebb565b5060a0820151816005019080519060200190610e5e929190610ebb565b5060c08201518160060160006101000a81548160ff02191690831515021790555060e08201518160060160016101000a81548160ff021916908360ff160217905550505060018054610eb0919061141f565b600181905550505050565b828054610ec79061150c565b90600052602060002090601f016020900481019282610ee95760008555610f30565b82601f10610f0257805160ff1916838001178555610f30565b82800160010185558215610f30579182015b82811115610f2f578251825591602001919060010190610f14565b5b509050610f3d9190610f41565b5090565b5b80821115610f5a576000816000905550600101610f42565b5090565b6000610f71610f6c846113d2565b6113ad565b905082815260208101848484011115610f8957600080fd5b610f948482856114ca565b509392505050565b600081359050610fab81611723565b92915050565b600081359050610fc08161173a565b92915050565b600082601f830112610fd757600080fd5b8135610fe7848260208601610f5e565b91505092915050565b600081359050610fff81611751565b92915050565b60006020828403121561101757600080fd5b600061102584828501610f9c565b91505092915050565b60008060006060848603121561104357600080fd5b600084013567ffffffffffffffff81111561105d57600080fd5b61106986828701610fc6565b935050602061107a86828701610f9c565b925050604084013567ffffffffffffffff81111561109757600080fd5b6110a386828701610fc6565b9150509250925092565b600080600080600060a086880312156110c557600080fd5b600086013567ffffffffffffffff8111156110df57600080fd5b6110eb88828901610fc6565b955050602086013567ffffffffffffffff81111561110857600080fd5b61111488828901610fc6565b945050604086013567ffffffffffffffff81111561113157600080fd5b61113d88828901610fc6565b935050606061114e88828901610fb1565b925050608061115f88828901610ff0565b9150509295509295909350565b61117581611475565b82525050565b600061118682611403565b611190818561140e565b93506111a08185602086016114d9565b6111a9816115fc565b840191505092915050565b60006111c160148361140e565b91506111cc8261160d565b602082019050919050565b60006111e460378361140e565b91506111ef82611636565b604082019050919050565b6000611207602e8361140e565b915061121282611685565b604082019050919050565b600061122a60378361140e565b9150611235826116d4565b604082019050919050565b611249816114b3565b82525050565b611258816114bd565b82525050565b6000606082019050611273600083018661116c565b8181036020830152611285818561117b565b90508181036040830152611299818461117b565b9050949350505050565b600060a08201905081810360008301526112bd818861117b565b905081810360208301526112d1818761117b565b905081810360408301526112e5818661117b565b905081810360608301526112f9818561117b565b9050611308608083018461124f565b9695505050505050565b6000602082019050818103600083015261132b816111b4565b9050919050565b6000602082019050818103600083015261134b816111d7565b9050919050565b6000602082019050818103600083015261136b816111fa565b9050919050565b6000602082019050818103600083015261138b8161121d565b9050919050565b60006020820190506113a76000830184611240565b92915050565b60006113b76113c8565b90506113c3828261153e565b919050565b6000604051905090565b600067ffffffffffffffff8211156113ed576113ec6115cd565b5b6113f6826115fc565b9050602081019050919050565b600081519050919050565b600082825260208201905092915050565b600061142a826114b3565b9150611435836114b3565b9250827fffffffffffffffffffffffffffffffffffffffffffffffffffffffffffffffff0382111561146a5761146961156f565b5b828201905092915050565b600061148082611493565b9050919050565b60008115159050919050565b600073ffffffffffffffffffffffffffffffffffffffff82169050919050565b6000819050919050565b600060ff82169050919050565b82818337600083830152505050565b60005b838110156114f75780820151818401526020810190506114dc565b83811115611506576000848401525b50505050565b6000600282049050600182168061152457607f821691505b602082108114156115385761153761159e565b5b50919050565b611547826115fc565b810181811067ffffffffffffffff82111715611566576115656115cd565b5b80604052505050565b7f4e487b7100000000000000000000000000000000000000000000000000000000600052601160045260246000fd5b7f4e487b7100000000000000000000000000000000000000000000000000000000600052602260045260246000fd5b7f4e487b7100000000000000000000000000000000000000000000000000000000600052604160045260246000fd5b6000601f19601f8301169050919050565b7f5573657220616c72656164792065786973747321000000000000000000000000600082015250565b7f50726f7669646564206163636f756e74206164647265737320646f6573206e6f60008201527f74206d617463682073656e646572206163636f756e7421000000000000000000602082015250565b7f596f7520646f6e27742068617665207065726d697373696f6e20746f2075706460008201527f617465207573657220696e666f21000000000000000000000000000000000000602082015250565b7f596f7520646f6e27742068617665207065726d697373696f6e20746f2076696560008201527f772075736572206163636f756e742064657461696c7321000000000000000000602082015250565b61172c81611475565b811461173757600080fd5b50565b61174381611487565b811461174e57600080fd5b50565b61175a816114bd565b811461176557600080fd5b5056fea2646970667358221220b8bd86ff94af91c6f446b957bb554008400d251357093b278f178907d1b5b00764736f6c63430008040033",
  "immutableReferences": {},
  "source": "// SPDX-License-Identifier: MIT\r\n\r\n// SPDX-License-Identifier: Something Else\r\npragma solidity 0.8.4;\r\n\r\ncontract Healthcare {\r\n    mapping(address => uint256) internal userID;\r\n    uint256 internal numberOfUsers;\r\n    address internal owner = msg.sender;\r\n\r\n    struct User {\r\n        address userPK;\r\n        string userName;\r\n        string userRole;\r\n        string firstName;\r\n        string middleName;\r\n        string lastName;\r\n        bool gender;\r\n        uint8 age;\r\n    }\r\n    User[] users;\r\n\r\n    constructor() {\r\n        numberOfUsers = 0;\r\n        users.push(User(owner,\"Admin\",\"Admin\",\"Admin\",\"Admin\",\"Admin\",false,0));\r\n    }\r\n\r\n    function addUser(string memory userName, address userAddr,string memory userRole) public{\r\n        require(userID[userAddr] == 0 && msg.sender!=owner,\"User already exists!\");\r\n        require(userAddr==msg.sender,\"Provided account address does not match sender account!\");\r\n            userID[userAddr] = users.length;\r\n            users.push(User(userAddr, userName, userRole,\"First Name\",\"Middle Name\",\"Last Name\",false,0));\r\n            numberOfUsers = numberOfUsers + 1;\r\n    }\r\n    \r\n    function updateUserInfo(string memory fName,string memory mName,string memory lName,bool gender, uint8 age) public{\r\n        uint256 id = userID[msg.sender];\r\n        require(id!=0,\"You don't have permission to update user info!\");\r\n        users[id].firstName=fName;\r\n        users[id].middleName=mName;\r\n        users[id].lastName=lName;\r\n        users[id].gender=gender;\r\n        users[id].age=age;\r\n        \r\n    }\r\n    \r\n    function showUsersCount() public view returns(uint256){\r\n        return(numberOfUsers);\r\n    }\r\n    \r\n    function showAccInfo(address userAddr) public view returns(address Account,string memory UserName,string memory UserRole){\r\n        require(msg.sender==userAddr && userID[userAddr] != 0 ,\"You don't have permission to view user account details!\");\r\n        uint256 id = userID[userAddr];\r\n        return(users[id].userPK,users[id].userName,users[id].userRole); \r\n    }\r\n    \r\n    function showPersonalInfo(address userAddr) public view returns(string memory FirstName,string memory MiddleName,string memory LastName,string memory Gender,uint8 Age){\r\n        uint256 id = userID[userAddr];\r\n        string memory gender;\r\n        if(users[id].gender)\r\n            gender=\"Female\";\r\n        else\r\n            gender=\"Male\";\r\n        return(users[id].firstName,users[id].middleName,users[id].lastName,gender,users[id].age); \r\n    }\r\n    \r\n}\r\n",
  "sourcePath": "E:/BE_project/project/contracts/Healthcare.sol",
  "compiler": {
    "name": "solc",
    "version": "0.8.4+commit.c7e474f2.Emscripten.clang"
  },
  "schemaVersion": "3.3.1",
  "updatedAt": "2021-05-11T16:52:54.986Z",
  "devdoc": {
    "kind": "dev",
    "methods": {},
    "version": 1
  },
  "userdoc": {
    "kind": "user",
    "methods": {},
    "version": 1
  }
}