{
  "contractName": "Healthcare",
  "abi": [
    {
      "inputs": [
        {
          "internalType": "string",
          "name": "userName",
          "type": "string"
        },
        {
          "internalType": "address",
          "name": "userAddr",
          "type": "address"
        },
        {
          "internalType": "string",
          "name": "userRole",
          "type": "string"
        }
      ],
      "name": "addUser",
      "outputs": [],
      "stateMutability": "nonpayable",
      "type": "function"
    },
    {
      "inputs": [
        {
          "internalType": "string",
          "name": "fName",
          "type": "string"
        },
        {
          "internalType": "string",
          "name": "mName",
          "type": "string"
        },
        {
          "internalType": "string",
          "name": "lName",
          "type": "string"
        },
        {
          "internalType": "bool",
          "name": "gender",
          "type": "bool"
        },
        {
          "internalType": "uint8",
          "name": "age",
          "type": "uint8"
        }
      ],
      "name": "updateUserInfo",
      "outputs": [],
      "stateMutability": "nonpayable",
      "type": "function"
    },
    {
      "inputs": [],
      "name": "showUsersCount",
      "outputs": [
        {
          "internalType": "uint256",
          "name": "",
          "type": "uint256"
        }
      ],
      "stateMutability": "view",
      "type": "function",
      "constant": true
    },
    {
      "inputs": [
        {
          "internalType": "address",
          "name": "userAddr",
          "type": "address"
        }
      ],
      "name": "showUserName",
      "outputs": [
        {
          "internalType": "string",
          "name": "UserName",
          "type": "string"
        }
      ],
      "stateMutability": "view",
      "type": "function",
      "constant": true
    },
    {
      "inputs": [
        {
          "internalType": "address",
          "name": "userAddr",
          "type": "address"
        }
      ],
      "name": "showAccInfo",
      "outputs": [
        {
          "internalType": "address",
          "name": "Account",
          "type": "address"
        },
        {
          "internalType": "string",
          "name": "UserName",
          "type": "string"
        },
        {
          "internalType": "string",
          "name": "UserRole",
          "type": "string"
        }
      ],
      "stateMutability": "view",
      "type": "function",
      "constant": true
    },
    {
      "inputs": [
        {
          "internalType": "address",
          "name": "userAddr",
          "type": "address"
        }
      ],
      "name": "showPersonalInfo",
      "outputs": [
        {
          "internalType": "string",
          "name": "FirstName",
          "type": "string"
        },
        {
          "internalType": "string",
          "name": "MiddleName",
          "type": "string"
        },
        {
          "internalType": "string",
          "name": "LastName",
          "type": "string"
        },
        {
          "internalType": "string",
          "name": "Gender",
          "type": "string"
        },
        {
          "internalType": "uint8",
          "name": "Age",
          "type": "uint8"
        },
        {
          "internalType": "uint256",
          "name": "TotalRecords",
          "type": "uint256"
        }
      ],
      "stateMutability": "view",
      "type": "function",
      "constant": true
    },
    {
      "inputs": [
        {
          "internalType": "string",
          "name": "index",
          "type": "string"
        },
        {
          "internalType": "address",
          "name": "userAddr",
          "type": "address"
        },
        {
          "internalType": "string",
          "name": "_reason",
          "type": "string"
        },
        {
          "internalType": "string",
          "name": "_desc",
          "type": "string"
        }
      ],
      "name": "addRecord",
      "outputs": [],
      "stateMutability": "payable",
      "type": "function",
      "payable": true
    },
    {
      "inputs": [
        {
          "internalType": "string",
          "name": "index",
          "type": "string"
        },
        {
          "internalType": "string",
          "name": "hash",
          "type": "string"
        }
      ],
      "name": "addMedicalDocs",
      "outputs": [],
      "stateMutability": "payable",
      "type": "function",
      "payable": true
    },
    {
      "inputs": [
        {
          "internalType": "string",
          "name": "index",
          "type": "string"
        },
        {
          "internalType": "string",
          "name": "hash",
          "type": "string"
        }
      ],
      "name": "addBills",
      "outputs": [],
      "stateMutability": "payable",
      "type": "function",
      "payable": true
    },
    {
      "inputs": [
        {
          "internalType": "string",
          "name": "index",
          "type": "string"
        }
      ],
      "name": "showRecord",
      "outputs": [
        {
          "internalType": "string",
          "name": "Reason",
          "type": "string"
        },
        {
          "internalType": "string",
          "name": "Description",
          "type": "string"
        },
        {
          "internalType": "string[]",
          "name": "MedicalDocs",
          "type": "string[]"
        },
        {
          "internalType": "string[]",
          "name": "Bills",
          "type": "string[]"
        }
      ],
      "stateMutability": "view",
      "type": "function",
      "constant": true
    }
  ],
  "bytecode": "0x6080604052336000806101000a81548173ffffffffffffffffffffffffffffffffffffffff021916908373ffffffffffffffffffffffffffffffffffffffff16021790555034801561005057600080fd5b5061282b806100606000396000f3fe6080604052600436106100915760003560e01c80636616c266116100595780636616c2661461017b5780637e7fa05e146101a4578063b087a2ed146101c0578063c6cd372d146101ff578063d4b317311461023c57610091565b8063023a3bf514610096578063200b0ff2146100d85780632067bea7146101035780635858d03f1461014357806361a33ed91461015f575b600080fd5b3480156100a257600080fd5b506100bd60048036038101906100b89190611e0f565b610265565b6040516100cf9695949392919061236f565b60405180910390f35b3480156100e457600080fd5b506100ed61064f565b6040516100fa919061244c565b60405180910390f35b34801561010f57600080fd5b5061012a60048036038101906101259190611e38565b61065c565b60405161013a949392919061230e565b60405180910390f35b61015d60048036038101906101589190611fa3565b6109b3565b005b61017960048036038101906101749190611fa3565b610a12565b005b34801561018757600080fd5b506101a2600480360381019061019d919061200f565b610a71565b005b6101be60048036038101906101b99190611ef8565b610cc1565b005b3480156101cc57600080fd5b506101e760048036038101906101e29190611e0f565b6110cb565b6040516101f6939291906122a7565b60405180910390f35b34801561020b57600080fd5b5061022660048036038101906102219190611e0f565b6113a2565b60405161023391906122ec565b60405180910390f35b34801561024857600080fd5b50610263600480360381019061025e9190611e79565b611476565b005b6060806060806000806060600160008973ffffffffffffffffffffffffffffffffffffffff1673ffffffffffffffffffffffffffffffffffffffff16815260200190815260200160002060060160009054906101000a900460ff1615610302576040518060400160405280600681526020017f46656d616c650000000000000000000000000000000000000000000000000000815250905061033b565b6040518060400160405280600481526020017f4d616c650000000000000000000000000000000000000000000000000000000081525090505b600160008973ffffffffffffffffffffffffffffffffffffffff1673ffffffffffffffffffffffffffffffffffffffff168152602001908152602001600020600301600160008a73ffffffffffffffffffffffffffffffffffffffff1673ffffffffffffffffffffffffffffffffffffffff168152602001908152602001600020600401600160008b73ffffffffffffffffffffffffffffffffffffffff1673ffffffffffffffffffffffffffffffffffffffff16815260200190815260200160002060050183600160008d73ffffffffffffffffffffffffffffffffffffffff1673ffffffffffffffffffffffffffffffffffffffff16815260200190815260200160002060060160019054906101000a900460ff16600160008e73ffffffffffffffffffffffffffffffffffffffff1673ffffffffffffffffffffffffffffffffffffffff168152602001908152602001600020600701548580546104a1906125c5565b80601f01602080910402602001604051908101604052809291908181526020018280546104cd906125c5565b801561051a5780601f106104ef5761010080835404028352916020019161051a565b820191906000526020600020905b8154815290600101906020018083116104fd57829003601f168201915b5050505050955084805461052d906125c5565b80601f0160208091040260200160405190810160405280929190818152602001828054610559906125c5565b80156105a65780601f1061057b576101008083540402835291602001916105a6565b820191906000526020600020905b81548152906001019060200180831161058957829003601f168201915b505050505094508380546105b9906125c5565b80601f01602080910402602001604051908101604052809291908181526020018280546105e5906125c5565b80156106325780601f1061060757610100808354040283529160200191610632565b820191906000526020600020905b81548152906001019060200180831161061557829003601f168201915b505050505093509650965096509650965096505091939550919395565b6000600280549050905090565b6060806060806003856040516106729190612290565b90815260200160405180910390206000016003866040516106939190612290565b90815260200160405180910390206001016003876040516106b49190612290565b90815260200160405180910390206002016003886040516106d59190612290565b90815260200160405180910390206003018380546106f2906125c5565b80601f016020809104026020016040519081016040528092919081815260200182805461071e906125c5565b801561076b5780601f106107405761010080835404028352916020019161076b565b820191906000526020600020905b81548152906001019060200180831161074e57829003601f168201915b5050505050935082805461077e906125c5565b80601f01602080910402602001604051908101604052809291908181526020018280546107aa906125c5565b80156107f75780601f106107cc576101008083540402835291602001916107f7565b820191906000526020600020905b8154815290600101906020018083116107da57829003601f168201915b5050505050925081805480602002602001604051908101604052809291908181526020016000905b828210156108cb57838290600052602060002001805461083e906125c5565b80601f016020809104026020016040519081016040528092919081815260200182805461086a906125c5565b80156108b75780601f1061088c576101008083540402835291602001916108b7565b820191906000526020600020905b81548152906001019060200180831161089a57829003601f168201915b50505050508152602001906001019061081f565b50505050915080805480602002602001604051908101604052809291908181526020016000905b8282101561099e578382906000526020600020018054610911906125c5565b80601f016020809104026020016040519081016040528092919081815260200182805461093d906125c5565b801561098a5780601f1061095f5761010080835404028352916020019161098a565b820191906000526020600020905b81548152906001019060200180831161096d57829003601f168201915b5050505050815260200190600101906108f2565b50505050905093509350935093509193509193565b6003826040516109c39190612290565b908152602001604051809103902060030181908060018154018082558091505060019003906000526020600020016000909190919091509080519060200190610a0d929190611c01565b505050565b600382604051610a229190612290565b908152602001604051809103902060020181908060018154018082558091505060019003906000526020600020016000909190919091509080519060200190610a6c929190611c01565b505050565b60008054906101000a900473ffffffffffffffffffffffffffffffffffffffff1673ffffffffffffffffffffffffffffffffffffffff163373ffffffffffffffffffffffffffffffffffffffff161415610b00576040517f08c379a0000000000000000000000000000000000000000000000000000000008152600401610af7906123ec565b60405180910390fd5b84600160003373ffffffffffffffffffffffffffffffffffffffff1673ffffffffffffffffffffffffffffffffffffffff1681526020019081526020016000206003019080519060200190610b56929190611c01565b5083600160003373ffffffffffffffffffffffffffffffffffffffff1673ffffffffffffffffffffffffffffffffffffffff1681526020019081526020016000206004019080519060200190610bad929190611c01565b5082600160003373ffffffffffffffffffffffffffffffffffffffff1673ffffffffffffffffffffffffffffffffffffffff1681526020019081526020016000206005019080519060200190610c04929190611c01565b5081600160003373ffffffffffffffffffffffffffffffffffffffff1673ffffffffffffffffffffffffffffffffffffffff16815260200190815260200160002060060160006101000a81548160ff02191690831515021790555080600160003373ffffffffffffffffffffffffffffffffffffffff1673ffffffffffffffffffffffffffffffffffffffff16815260200190815260200160002060060160016101000a81548160ff021916908360ff1602179055505050505050565b6000600385604051610cd39190612290565b9081526020016040518091039020604051806080016040529081600082018054610cfc906125c5565b80601f0160208091040260200160405190810160405280929190818152602001828054610d28906125c5565b8015610d755780601f10610d4a57610100808354040283529160200191610d75565b820191906000526020600020905b815481529060010190602001808311610d5857829003601f168201915b50505050508152602001600182018054610d8e906125c5565b80601f0160208091040260200160405190810160405280929190818152602001828054610dba906125c5565b8015610e075780601f10610ddc57610100808354040283529160200191610e07565b820191906000526020600020905b815481529060010190602001808311610dea57829003601f168201915b5050505050815260200160028201805480602002602001604051908101604052809291908181526020016000905b82821015610ee1578382906000526020600020018054610e54906125c5565b80601f0160208091040260200160405190810160405280929190818152602001828054610e80906125c5565b8015610ecd5780601f10610ea257610100808354040283529160200191610ecd565b820191906000526020600020905b815481529060010190602001808311610eb057829003601f168201915b505050505081526020019060010190610e35565b50505050815260200160038201805480602002602001604051908101604052809291908181526020016000905b82821015610fba578382906000526020600020018054610f2d906125c5565b80601f0160208091040260200160405190810160405280929190818152602001828054610f59906125c5565b8015610fa65780601f10610f7b57610100808354040283529160200191610fa6565b820191906000526020600020905b815481529060010190602001808311610f8957829003601f168201915b505050505081526020019060010190610f0e565b5050505081525050905082816000018190525081816020018190525080600386604051610fe79190612290565b90815260200160405180910390206000820151816000019080519060200190611011929190611c01565b50602082015181600101908051906020019061102e929190611c01565b50604082015181600201908051906020019061104b929190611c87565b506060820151816003019080519060200190611068929190611c87565b50905050600160008573ffffffffffffffffffffffffffffffffffffffff1673ffffffffffffffffffffffffffffffffffffffff16815260200190815260200160002060070160008154809291906110bf90612628565b91905055505050505050565b60006060808373ffffffffffffffffffffffffffffffffffffffff163373ffffffffffffffffffffffffffffffffffffffff16148015611157575060008054906101000a900473ffffffffffffffffffffffffffffffffffffffff1673ffffffffffffffffffffffffffffffffffffffff168473ffffffffffffffffffffffffffffffffffffffff1614155b611196576040517f08c379a000000000000000000000000000000000000000000000000000000000815260040161118d9061242c565b60405180910390fd5b600160008573ffffffffffffffffffffffffffffffffffffffff1673ffffffffffffffffffffffffffffffffffffffff16815260200190815260200160002060000160009054906101000a900473ffffffffffffffffffffffffffffffffffffffff16600160008673ffffffffffffffffffffffffffffffffffffffff1673ffffffffffffffffffffffffffffffffffffffff168152602001908152602001600020600101600160008773ffffffffffffffffffffffffffffffffffffffff1673ffffffffffffffffffffffffffffffffffffffff168152602001908152602001600020600201818054611289906125c5565b80601f01602080910402602001604051908101604052809291908181526020018280546112b5906125c5565b80156113025780601f106112d757610100808354040283529160200191611302565b820191906000526020600020905b8154815290600101906020018083116112e557829003601f168201915b50505050509150808054611315906125c5565b80601f0160208091040260200160405190810160405280929190818152602001828054611341906125c5565b801561138e5780601f106113635761010080835404028352916020019161138e565b820191906000526020600020905b81548152906001019060200180831161137157829003601f168201915b505050505090509250925092509193909250565b6060600160008373ffffffffffffffffffffffffffffffffffffffff1673ffffffffffffffffffffffffffffffffffffffff16815260200190815260200160002060010180546113f1906125c5565b80601f016020809104026020016040519081016040528092919081815260200182805461141d906125c5565b801561146a5780601f1061143f5761010080835404028352916020019161146a565b820191906000526020600020905b81548152906001019060200180831161144d57829003601f168201915b50505050509050919050565b3373ffffffffffffffffffffffffffffffffffffffff168273ffffffffffffffffffffffffffffffffffffffff161480156114fd575060008054906101000a900473ffffffffffffffffffffffffffffffffffffffff1673ffffffffffffffffffffffffffffffffffffffff163373ffffffffffffffffffffffffffffffffffffffff1614155b61153c576040517f08c379a00000000000000000000000000000000000000000000000000000000081526004016115339061240c565b60405180910390fd5b6000600160008473ffffffffffffffffffffffffffffffffffffffff1673ffffffffffffffffffffffffffffffffffffffff168152602001908152602001600020604051806101200160405290816000820160009054906101000a900473ffffffffffffffffffffffffffffffffffffffff1673ffffffffffffffffffffffffffffffffffffffff1673ffffffffffffffffffffffffffffffffffffffff1681526020016001820180546115ef906125c5565b80601f016020809104026020016040519081016040528092919081815260200182805461161b906125c5565b80156116685780601f1061163d57610100808354040283529160200191611668565b820191906000526020600020905b81548152906001019060200180831161164b57829003601f168201915b50505050508152602001600282018054611681906125c5565b80601f01602080910402602001604051908101604052809291908181526020018280546116ad906125c5565b80156116fa5780601f106116cf576101008083540402835291602001916116fa565b820191906000526020600020905b8154815290600101906020018083116116dd57829003601f168201915b50505050508152602001600382018054611713906125c5565b80601f016020809104026020016040519081016040528092919081815260200182805461173f906125c5565b801561178c5780601f106117615761010080835404028352916020019161178c565b820191906000526020600020905b81548152906001019060200180831161176f57829003601f168201915b505050505081526020016004820180546117a5906125c5565b80601f01602080910402602001604051908101604052809291908181526020018280546117d1906125c5565b801561181e5780601f106117f35761010080835404028352916020019161181e565b820191906000526020600020905b81548152906001019060200180831161180157829003601f168201915b50505050508152602001600582018054611837906125c5565b80601f0160208091040260200160405190810160405280929190818152602001828054611863906125c5565b80156118b05780601f10611885576101008083540402835291602001916118b0565b820191906000526020600020905b81548152906001019060200180831161189357829003601f168201915b505050505081526020016006820160009054906101000a900460ff161515151581526020016006820160019054906101000a900460ff1660ff1660ff168152602001600782015481525050905082816000019073ffffffffffffffffffffffffffffffffffffffff16908173ffffffffffffffffffffffffffffffffffffffff16815250508381602001819052508181604001819052506040518060400160405280600a81526020017f4669727374204e616d650000000000000000000000000000000000000000000081525081606001819052506040518060400160405280600b81526020017f4d6964646c65204e616d6500000000000000000000000000000000000000000081525081608001819052506040518060400160405280600981526020017f4c617374204e616d6500000000000000000000000000000000000000000000008152508160a0018190525060008160c001901515908115158152505060008160e0019060ff16908160ff168152505060008161010001818152505080600160008573ffffffffffffffffffffffffffffffffffffffff1673ffffffffffffffffffffffffffffffffffffffff16815260200190815260200160002060008201518160000160006101000a81548173ffffffffffffffffffffffffffffffffffffffff021916908373ffffffffffffffffffffffffffffffffffffffff1602179055506020820151816001019080519060200190611ad4929190611c01565b506040820151816002019080519060200190611af1929190611c01565b506060820151816003019080519060200190611b0e929190611c01565b506080820151816004019080519060200190611b2b929190611c01565b5060a0820151816005019080519060200190611b48929190611c01565b5060c08201518160060160006101000a81548160ff02191690831515021790555060e08201518160060160016101000a81548160ff021916908360ff16021790555061010082015181600701559050506002839080600181540180825580915050600190039060005260206000200160009091909190916101000a81548173ffffffffffffffffffffffffffffffffffffffff021916908373ffffffffffffffffffffffffffffffffffffffff16021790555050505050565b828054611c0d906125c5565b90600052602060002090601f016020900481019282611c2f5760008555611c76565b82601f10611c4857805160ff1916838001178555611c76565b82800160010185558215611c76579182015b82811115611c75578251825591602001919060010190611c5a565b5b509050611c839190611ce7565b5090565b828054828255906000526020600020908101928215611cd6579160200282015b82811115611cd5578251829080519060200190611cc5929190611c01565b5091602001919060010190611ca7565b5b509050611ce39190611d04565b5090565b5b80821115611d00576000816000905550600101611ce8565b5090565b5b80821115611d245760008181611d1b9190611d28565b50600101611d05565b5090565b508054611d34906125c5565b6000825580601f10611d465750611d65565b601f016020900490600052602060002090810190611d649190611ce7565b5b50565b6000611d7b611d768461248c565b612467565b905082815260208101848484011115611d9357600080fd5b611d9e848285612583565b509392505050565b600081359050611db5816127b0565b92915050565b600081359050611dca816127c7565b92915050565b600082601f830112611de157600080fd5b8135611df1848260208601611d68565b91505092915050565b600081359050611e09816127de565b92915050565b600060208284031215611e2157600080fd5b6000611e2f84828501611da6565b91505092915050565b600060208284031215611e4a57600080fd5b600082013567ffffffffffffffff811115611e6457600080fd5b611e7084828501611dd0565b91505092915050565b600080600060608486031215611e8e57600080fd5b600084013567ffffffffffffffff811115611ea857600080fd5b611eb486828701611dd0565b9350506020611ec586828701611da6565b925050604084013567ffffffffffffffff811115611ee257600080fd5b611eee86828701611dd0565b9150509250925092565b60008060008060808587031215611f0e57600080fd5b600085013567ffffffffffffffff811115611f2857600080fd5b611f3487828801611dd0565b9450506020611f4587828801611da6565b935050604085013567ffffffffffffffff811115611f6257600080fd5b611f6e87828801611dd0565b925050606085013567ffffffffffffffff811115611f8b57600080fd5b611f9787828801611dd0565b91505092959194509250565b60008060408385031215611fb657600080fd5b600083013567ffffffffffffffff811115611fd057600080fd5b611fdc85828601611dd0565b925050602083013567ffffffffffffffff811115611ff957600080fd5b61200585828601611dd0565b9150509250929050565b600080600080600060a0868803121561202757600080fd5b600086013567ffffffffffffffff81111561204157600080fd5b61204d88828901611dd0565b955050602086013567ffffffffffffffff81111561206a57600080fd5b61207688828901611dd0565b945050604086013567ffffffffffffffff81111561209357600080fd5b61209f88828901611dd0565b93505060606120b088828901611dbb565b92505060806120c188828901611dfa565b9150509295509295909350565b60006120da8383612166565b905092915050565b6120eb8161252e565b82525050565b60006120fc826124cd565b61210681856124f0565b935083602082028501612118856124bd565b8060005b85811015612154578484038952815161213585826120ce565b9450612140836124e3565b925060208a0199505060018101905061211c565b50829750879550505050505092915050565b6000612171826124d8565b61217b8185612501565b935061218b818560208601612592565b612194816126fe565b840191505092915050565b60006121aa826124d8565b6121b48185612512565b93506121c4818560208601612592565b6121cd816126fe565b840191505092915050565b60006121e3826124d8565b6121ed8185612523565b93506121fd818560208601612592565b80840191505092915050565b6000612216601c83612512565b91506122218261270f565b602082019050919050565b6000612239601783612512565b915061224482612738565b602082019050919050565b600061225c603783612512565b915061226782612761565b604082019050919050565b61227b8161256c565b82525050565b61228a81612576565b82525050565b600061229c82846121d8565b915081905092915050565b60006060820190506122bc60008301866120e2565b81810360208301526122ce818561219f565b905081810360408301526122e2818461219f565b9050949350505050565b60006020820190508181036000830152612306818461219f565b905092915050565b60006080820190508181036000830152612328818761219f565b9050818103602083015261233c818661219f565b9050818103604083015261235081856120f1565b9050818103606083015261236481846120f1565b905095945050505050565b600060c0820190508181036000830152612389818961219f565b9050818103602083015261239d818861219f565b905081810360408301526123b1818761219f565b905081810360608301526123c5818661219f565b90506123d46080830185612281565b6123e160a0830184612272565b979650505050505050565b6000602082019050818103600083015261240581612209565b9050919050565b600060208201905081810360008301526124258161222c565b9050919050565b600060208201905081810360008301526124458161224f565b9050919050565b60006020820190506124616000830184612272565b92915050565b6000612471612482565b905061247d82826125f7565b919050565b6000604051905090565b600067ffffffffffffffff8211156124a7576124a66126cf565b5b6124b0826126fe565b9050602081019050919050565b6000819050602082019050919050565b600081519050919050565b600081519050919050565b6000602082019050919050565b600082825260208201905092915050565b600082825260208201905092915050565b600082825260208201905092915050565b600081905092915050565b60006125398261254c565b9050919050565b60008115159050919050565b600073ffffffffffffffffffffffffffffffffffffffff82169050919050565b6000819050919050565b600060ff82169050919050565b82818337600083830152505050565b60005b838110156125b0578082015181840152602081019050612595565b838111156125bf576000848401525b50505050565b600060028204905060018216806125dd57607f821691505b602082108114156125f1576125f06126a0565b5b50919050565b612600826126fe565b810181811067ffffffffffffffff8211171561261f5761261e6126cf565b5b80604052505050565b60006126338261256c565b91507fffffffffffffffffffffffffffffffffffffffffffffffffffffffffffffffff82141561266657612665612671565b5b600182019050919050565b7f4e487b7100000000000000000000000000000000000000000000000000000000600052601160045260246000fd5b7f4e487b7100000000000000000000000000000000000000000000000000000000600052602260045260246000fd5b7f4e487b7100000000000000000000000000000000000000000000000000000000600052604160045260246000fd5b6000601f19601f8301169050919050565b7f596f752063616e6e6f7420757064617465207573657220696e666f2100000000600082015250565b7f496e636f72726563742075736572206164647265737321000000000000000000600082015250565b7f596f7520646f6e27742068617665207065726d697373696f6e20746f2076696560008201527f772075736572206163636f756e742064657461696c7321000000000000000000602082015250565b6127b98161252e565b81146127c457600080fd5b50565b6127d081612540565b81146127db57600080fd5b50565b6127e781612576565b81146127f257600080fd5b5056fea2646970667358221220b76330b90f225bb90c567aa51d14a8e3f0842d5a9ad8f9c40e9c6af419c1027164736f6c63430008040033",
  "immutableReferences": {},
  "source": "// SPDX-License-Identifier: MIT\r\n\r\n// SPDX-License-Identifier: Something Else\r\npragma solidity 0.8.4;\r\n\r\ncontract Healthcare {\r\n    address internal owner = msg.sender; //store account address that deployed the smart contract\r\n\r\n    struct User {                       //For storing user info\r\n        address userPK;\r\n        string userName;\r\n        string userRole;\r\n        string firstName;\r\n        string middleName;\r\n        string lastName;\r\n        bool gender;\r\n        uint8 age;\r\n        uint noOfRecords;\r\n    }\r\n    mapping(address => User) user;\r\n    address[] usersArray;               //To get total number of users\r\n    \r\n    struct Document{                    //For storing user documents using unique key made of userAddr_index\r\n        string reason;\r\n        string desc;\r\n        string[] medicalDocs;\r\n        string[] bills;\r\n    }\r\n    mapping(string=>Document) documents;\r\n    \r\n    function addUser(string memory userName, address userAddr,string memory userRole) public{\r\n        require(userAddr==msg.sender && msg.sender!=owner,\"Incorrect user address!\");\r\n            User memory u = user[userAddr];\r\n            u.userPK=userAddr;\r\n            u.userName=userName;\r\n            u.userRole=userRole;\r\n            u.firstName=\"First Name\";\r\n            u.middleName=\"Middle Name\";\r\n            u.lastName=\"Last Name\";\r\n            u.gender=false;\r\n            u.age=0;\r\n            u.noOfRecords=0;\r\n            user[userAddr]=u;\r\n            usersArray.push(userAddr);\r\n    }\r\n    \r\n    function updateUserInfo(string memory fName,string memory mName,string memory lName,bool gender, uint8 age) public{\r\n        require(msg.sender!=owner,\"You cannot update user info!\");\r\n        user[msg.sender].firstName=fName;\r\n        user[msg.sender].middleName=mName;\r\n        user[msg.sender].lastName=lName;\r\n        user[msg.sender].gender=gender;\r\n        user[msg.sender].age=age;\r\n    }\r\n    \r\n    function showUsersCount() public view returns(uint256){\r\n        return(usersArray.length);\r\n    }\r\n\r\n    function showUserName(address userAddr) public view returns(string memory UserName){\r\n        return(user[userAddr].userName);\r\n    }\r\n    \r\n    function showAccInfo(address userAddr) public view returns(address Account,string memory UserName,string memory UserRole){\r\n        require(msg.sender==userAddr && userAddr != owner ,\"You don't have permission to view user account details!\");\r\n        return(user[userAddr].userPK,user[userAddr].userName,user[userAddr].userRole); \r\n    }\r\n    \r\n    function showPersonalInfo(address userAddr) public view returns(string memory FirstName,string memory MiddleName,string memory LastName,string memory Gender,uint8 Age,uint TotalRecords){\r\n        string memory gender;\r\n        if(user[userAddr].gender)\r\n            gender=\"Female\";\r\n        else\r\n            gender=\"Male\";\r\n        return(user[userAddr].firstName,user[userAddr].middleName,user[userAddr].lastName,gender,user[userAddr].age,user[userAddr].noOfRecords); \r\n    }\r\n        \r\n    function addRecord(string memory index,address userAddr, string memory _reason,string memory _desc) public payable{\r\n        Document memory d = documents[index];\r\n        d.reason=_reason;\r\n        d.desc=_desc;\r\n        documents[index]=d;\r\n        user[userAddr].noOfRecords++;\r\n    }\r\n    function addMedicalDocs(string memory index,string memory hash) public payable{\r\n     documents[index].medicalDocs.push(hash);   \r\n    }\r\n    \r\n    function addBills(string memory index,string memory hash) public payable{\r\n     documents[index].bills.push(hash);   \r\n    }\r\n    \r\n    function showRecord(string memory index) public view returns(string memory Reason, string memory Description,string[] memory MedicalDocs,string[] memory Bills){\r\n        return(documents[index].reason,documents[index].desc, documents[index].medicalDocs,documents[index].bills);\r\n    }\r\n    \r\n}\r\n",
  "sourcePath": "E:/BE_project/project/contracts/Healthcare.sol",
  "compiler": {
    "name": "solc",
    "version": "0.8.4+commit.c7e474f2.Emscripten.clang"
  },
  "schemaVersion": "3.3.1",
  "updatedAt": "2021-05-13T13:29:18.715Z",
  "networkType": "ethereum",
  "devdoc": {
    "kind": "dev",
    "methods": {},
    "version": 1
  },
  "userdoc": {
    "kind": "user",
    "methods": {},
    "version": 1
  }
}