{
  "contractName": "Healthcare",
  "abi": [
    {
      "inputs": [
        {
          "internalType": "string",
          "name": "userName",
          "type": "string"
        },
        {
          "internalType": "address",
          "name": "userAddr",
          "type": "address"
        },
        {
          "internalType": "string",
          "name": "userRole",
          "type": "string"
        }
      ],
      "name": "addUser",
      "outputs": [],
      "stateMutability": "nonpayable",
      "type": "function"
    },
    {
      "inputs": [
        {
          "internalType": "string",
          "name": "fName",
          "type": "string"
        },
        {
          "internalType": "string",
          "name": "mName",
          "type": "string"
        },
        {
          "internalType": "string",
          "name": "lName",
          "type": "string"
        },
        {
          "internalType": "bool",
          "name": "gender",
          "type": "bool"
        },
        {
          "internalType": "uint8",
          "name": "age",
          "type": "uint8"
        }
      ],
      "name": "updateUserInfo",
      "outputs": [],
      "stateMutability": "nonpayable",
      "type": "function"
    },
    {
      "inputs": [],
      "name": "showUsersCount",
      "outputs": [
        {
          "internalType": "uint256",
          "name": "",
          "type": "uint256"
        }
      ],
      "stateMutability": "view",
      "type": "function",
      "constant": true
    },
    {
      "inputs": [
        {
          "internalType": "address",
          "name": "userAddr",
          "type": "address"
        }
      ],
      "name": "showAccInfo",
      "outputs": [
        {
          "internalType": "address",
          "name": "Account",
          "type": "address"
        },
        {
          "internalType": "string",
          "name": "UserName",
          "type": "string"
        },
        {
          "internalType": "string",
          "name": "UserRole",
          "type": "string"
        }
      ],
      "stateMutability": "view",
      "type": "function",
      "constant": true
    },
    {
      "inputs": [
        {
          "internalType": "address",
          "name": "userAddr",
          "type": "address"
        }
      ],
      "name": "showPersonalInfo",
      "outputs": [
        {
          "internalType": "string",
          "name": "FirstName",
          "type": "string"
        },
        {
          "internalType": "string",
          "name": "MiddleName",
          "type": "string"
        },
        {
          "internalType": "string",
          "name": "LastName",
          "type": "string"
        },
        {
          "internalType": "string",
          "name": "Gender",
          "type": "string"
        },
        {
          "internalType": "uint8",
          "name": "Age",
          "type": "uint8"
        },
        {
          "internalType": "uint256",
          "name": "TotalRecords",
          "type": "uint256"
        }
      ],
      "stateMutability": "view",
      "type": "function",
      "constant": true
    },
    {
      "inputs": [
        {
          "internalType": "string",
          "name": "index",
          "type": "string"
        },
        {
          "internalType": "string",
          "name": "_reason",
          "type": "string"
        },
        {
          "internalType": "string",
          "name": "_desc",
          "type": "string"
        }
      ],
      "name": "addRecord",
      "outputs": [],
      "stateMutability": "payable",
      "type": "function",
      "payable": true
    },
    {
      "inputs": [
        {
          "internalType": "string",
          "name": "index",
          "type": "string"
        },
        {
          "internalType": "string",
          "name": "hash",
          "type": "string"
        }
      ],
      "name": "addMedicalDocs",
      "outputs": [],
      "stateMutability": "payable",
      "type": "function",
      "payable": true
    },
    {
      "inputs": [
        {
          "internalType": "string",
          "name": "index",
          "type": "string"
        },
        {
          "internalType": "string",
          "name": "hash",
          "type": "string"
        }
      ],
      "name": "addBills",
      "outputs": [],
      "stateMutability": "payable",
      "type": "function",
      "payable": true
    },
    {
      "inputs": [
        {
          "internalType": "string",
          "name": "index",
          "type": "string"
        }
      ],
      "name": "showRecord",
      "outputs": [
        {
          "internalType": "string",
          "name": "Reason",
          "type": "string"
        },
        {
          "internalType": "string",
          "name": "Description",
          "type": "string"
        },
        {
          "internalType": "string[]",
          "name": "MedicalDocs",
          "type": "string[]"
        },
        {
          "internalType": "string[]",
          "name": "Bills",
          "type": "string[]"
        }
      ],
      "stateMutability": "view",
      "type": "function",
      "constant": true
    }
  ],
  "bytecode": "0x6080604052336000806101000a81548173ffffffffffffffffffffffffffffffffffffffff021916908373ffffffffffffffffffffffffffffffffffffffff16021790555034801561005057600080fd5b50612608806100606000396000f3fe6080604052600436106100865760003560e01c80635858d03f116100595780635858d03f1461015457806361a33ed9146101705780636616c2661461018c578063b087a2ed146101b5578063d4b31731146101f457610086565b8063023a3bf51461008b578063200b0ff2146100cd5780632067bea7146100f85780633f723c6214610138575b600080fd5b34801561009757600080fd5b506100b260048036038101906100ad9190611c9a565b61021d565b6040516100c4969594939291906121c4565b60405180910390f35b3480156100d957600080fd5b506100e2610607565b6040516100ef91906122a1565b60405180910390f35b34801561010457600080fd5b5061011f600480360381019061011a9190611cc3565b610614565b60405161012f9493929190612163565b60405180910390f35b610152600480360381019061014d9190611def565b61096b565b005b61016e60048036038101906101699190611d83565b610d1c565b005b61018a60048036038101906101859190611d83565b610d7b565b005b34801561019857600080fd5b506101b360048036038101906101ae9190611e86565b610dda565b005b3480156101c157600080fd5b506101dc60048036038101906101d79190611c9a565b61102a565b6040516101eb9392919061211e565b60405180910390f35b34801561020057600080fd5b5061021b60048036038101906102169190611d04565b611301565b005b6060806060806000806060600160008973ffffffffffffffffffffffffffffffffffffffff1673ffffffffffffffffffffffffffffffffffffffff16815260200190815260200160002060060160009054906101000a900460ff16156102ba576040518060400160405280600681526020017f46656d616c65000000000000000000000000000000000000000000000000000081525090506102f3565b6040518060400160405280600481526020017f4d616c650000000000000000000000000000000000000000000000000000000081525090505b600160008973ffffffffffffffffffffffffffffffffffffffff1673ffffffffffffffffffffffffffffffffffffffff168152602001908152602001600020600301600160008a73ffffffffffffffffffffffffffffffffffffffff1673ffffffffffffffffffffffffffffffffffffffff168152602001908152602001600020600401600160008b73ffffffffffffffffffffffffffffffffffffffff1673ffffffffffffffffffffffffffffffffffffffff16815260200190815260200160002060050183600160008d73ffffffffffffffffffffffffffffffffffffffff1673ffffffffffffffffffffffffffffffffffffffff16815260200190815260200160002060060160019054906101000a900460ff16600160008e73ffffffffffffffffffffffffffffffffffffffff1673ffffffffffffffffffffffffffffffffffffffff168152602001908152602001600020600701548580546104599061241a565b80601f01602080910402602001604051908101604052809291908181526020018280546104859061241a565b80156104d25780601f106104a7576101008083540402835291602001916104d2565b820191906000526020600020905b8154815290600101906020018083116104b557829003601f168201915b505050505095508480546104e59061241a565b80601f01602080910402602001604051908101604052809291908181526020018280546105119061241a565b801561055e5780601f106105335761010080835404028352916020019161055e565b820191906000526020600020905b81548152906001019060200180831161054157829003601f168201915b505050505094508380546105719061241a565b80601f016020809104026020016040519081016040528092919081815260200182805461059d9061241a565b80156105ea5780601f106105bf576101008083540402835291602001916105ea565b820191906000526020600020905b8154815290600101906020018083116105cd57829003601f168201915b505050505093509650965096509650965096505091939550919395565b6000600280549050905090565b60608060608060038560405161062a9190612107565b908152602001604051809103902060000160038660405161064b9190612107565b908152602001604051809103902060010160038760405161066c9190612107565b908152602001604051809103902060020160038860405161068d9190612107565b90815260200160405180910390206003018380546106aa9061241a565b80601f01602080910402602001604051908101604052809291908181526020018280546106d69061241a565b80156107235780601f106106f857610100808354040283529160200191610723565b820191906000526020600020905b81548152906001019060200180831161070657829003601f168201915b505050505093508280546107369061241a565b80601f01602080910402602001604051908101604052809291908181526020018280546107629061241a565b80156107af5780601f10610784576101008083540402835291602001916107af565b820191906000526020600020905b81548152906001019060200180831161079257829003601f168201915b5050505050925081805480602002602001604051908101604052809291908181526020016000905b828210156108835783829060005260206000200180546107f69061241a565b80601f01602080910402602001604051908101604052809291908181526020018280546108229061241a565b801561086f5780601f106108445761010080835404028352916020019161086f565b820191906000526020600020905b81548152906001019060200180831161085257829003601f168201915b5050505050815260200190600101906107d7565b50505050915080805480602002602001604051908101604052809291908181526020016000905b828210156109565783829060005260206000200180546108c99061241a565b80601f01602080910402602001604051908101604052809291908181526020018280546108f59061241a565b80156109425780601f1061091757610100808354040283529160200191610942565b820191906000526020600020905b81548152906001019060200180831161092557829003601f168201915b5050505050815260200190600101906108aa565b50505050905093509350935093509193509193565b600060038460405161097d9190612107565b90815260200160405180910390206040518060800160405290816000820180546109a69061241a565b80601f01602080910402602001604051908101604052809291908181526020018280546109d29061241a565b8015610a1f5780601f106109f457610100808354040283529160200191610a1f565b820191906000526020600020905b815481529060010190602001808311610a0257829003601f168201915b50505050508152602001600182018054610a389061241a565b80601f0160208091040260200160405190810160405280929190818152602001828054610a649061241a565b8015610ab15780601f10610a8657610100808354040283529160200191610ab1565b820191906000526020600020905b815481529060010190602001808311610a9457829003601f168201915b5050505050815260200160028201805480602002602001604051908101604052809291908181526020016000905b82821015610b8b578382906000526020600020018054610afe9061241a565b80601f0160208091040260200160405190810160405280929190818152602001828054610b2a9061241a565b8015610b775780601f10610b4c57610100808354040283529160200191610b77565b820191906000526020600020905b815481529060010190602001808311610b5a57829003601f168201915b505050505081526020019060010190610adf565b50505050815260200160038201805480602002602001604051908101604052809291908181526020016000905b82821015610c64578382906000526020600020018054610bd79061241a565b80601f0160208091040260200160405190810160405280929190818152602001828054610c039061241a565b8015610c505780601f10610c2557610100808354040283529160200191610c50565b820191906000526020600020905b815481529060010190602001808311610c3357829003601f168201915b505050505081526020019060010190610bb8565b5050505081525050905082816000018190525081816020018190525080600385604051610c919190612107565b90815260200160405180910390206000820151816000019080519060200190610cbb929190611a8c565b506020820151816001019080519060200190610cd8929190611a8c565b506040820151816002019080519060200190610cf5929190611b12565b506060820151816003019080519060200190610d12929190611b12565b5090505050505050565b600382604051610d2c9190612107565b908152602001604051809103902060030181908060018154018082558091505060019003906000526020600020016000909190919091509080519060200190610d76929190611a8c565b505050565b600382604051610d8b9190612107565b908152602001604051809103902060020181908060018154018082558091505060019003906000526020600020016000909190919091509080519060200190610dd5929190611a8c565b505050565b60008054906101000a900473ffffffffffffffffffffffffffffffffffffffff1673ffffffffffffffffffffffffffffffffffffffff163373ffffffffffffffffffffffffffffffffffffffff161415610e69576040517f08c379a0000000000000000000000000000000000000000000000000000000008152600401610e6090612241565b60405180910390fd5b84600160003373ffffffffffffffffffffffffffffffffffffffff1673ffffffffffffffffffffffffffffffffffffffff1681526020019081526020016000206003019080519060200190610ebf929190611a8c565b5083600160003373ffffffffffffffffffffffffffffffffffffffff1673ffffffffffffffffffffffffffffffffffffffff1681526020019081526020016000206004019080519060200190610f16929190611a8c565b5082600160003373ffffffffffffffffffffffffffffffffffffffff1673ffffffffffffffffffffffffffffffffffffffff1681526020019081526020016000206005019080519060200190610f6d929190611a8c565b5081600160003373ffffffffffffffffffffffffffffffffffffffff1673ffffffffffffffffffffffffffffffffffffffff16815260200190815260200160002060060160006101000a81548160ff02191690831515021790555080600160003373ffffffffffffffffffffffffffffffffffffffff1673ffffffffffffffffffffffffffffffffffffffff16815260200190815260200160002060060160016101000a81548160ff021916908360ff1602179055505050505050565b60006060808373ffffffffffffffffffffffffffffffffffffffff163373ffffffffffffffffffffffffffffffffffffffff161480156110b6575060008054906101000a900473ffffffffffffffffffffffffffffffffffffffff1673ffffffffffffffffffffffffffffffffffffffff168473ffffffffffffffffffffffffffffffffffffffff1614155b6110f5576040517f08c379a00000000000000000000000000000000000000000000000000000000081526004016110ec90612281565b60405180910390fd5b600160008573ffffffffffffffffffffffffffffffffffffffff1673ffffffffffffffffffffffffffffffffffffffff16815260200190815260200160002060000160009054906101000a900473ffffffffffffffffffffffffffffffffffffffff16600160008673ffffffffffffffffffffffffffffffffffffffff1673ffffffffffffffffffffffffffffffffffffffff168152602001908152602001600020600101600160008773ffffffffffffffffffffffffffffffffffffffff1673ffffffffffffffffffffffffffffffffffffffff1681526020019081526020016000206002018180546111e89061241a565b80601f01602080910402602001604051908101604052809291908181526020018280546112149061241a565b80156112615780601f1061123657610100808354040283529160200191611261565b820191906000526020600020905b81548152906001019060200180831161124457829003601f168201915b505050505091508080546112749061241a565b80601f01602080910402602001604051908101604052809291908181526020018280546112a09061241a565b80156112ed5780601f106112c2576101008083540402835291602001916112ed565b820191906000526020600020905b8154815290600101906020018083116112d057829003601f168201915b505050505090509250925092509193909250565b3373ffffffffffffffffffffffffffffffffffffffff168273ffffffffffffffffffffffffffffffffffffffff16148015611388575060008054906101000a900473ffffffffffffffffffffffffffffffffffffffff1673ffffffffffffffffffffffffffffffffffffffff163373ffffffffffffffffffffffffffffffffffffffff1614155b6113c7576040517f08c379a00000000000000000000000000000000000000000000000000000000081526004016113be90612261565b60405180910390fd5b6000600160008473ffffffffffffffffffffffffffffffffffffffff1673ffffffffffffffffffffffffffffffffffffffff168152602001908152602001600020604051806101200160405290816000820160009054906101000a900473ffffffffffffffffffffffffffffffffffffffff1673ffffffffffffffffffffffffffffffffffffffff1673ffffffffffffffffffffffffffffffffffffffff16815260200160018201805461147a9061241a565b80601f01602080910402602001604051908101604052809291908181526020018280546114a69061241a565b80156114f35780601f106114c8576101008083540402835291602001916114f3565b820191906000526020600020905b8154815290600101906020018083116114d657829003601f168201915b5050505050815260200160028201805461150c9061241a565b80601f01602080910402602001604051908101604052809291908181526020018280546115389061241a565b80156115855780601f1061155a57610100808354040283529160200191611585565b820191906000526020600020905b81548152906001019060200180831161156857829003601f168201915b5050505050815260200160038201805461159e9061241a565b80601f01602080910402602001604051908101604052809291908181526020018280546115ca9061241a565b80156116175780601f106115ec57610100808354040283529160200191611617565b820191906000526020600020905b8154815290600101906020018083116115fa57829003601f168201915b505050505081526020016004820180546116309061241a565b80601f016020809104026020016040519081016040528092919081815260200182805461165c9061241a565b80156116a95780601f1061167e576101008083540402835291602001916116a9565b820191906000526020600020905b81548152906001019060200180831161168c57829003601f168201915b505050505081526020016005820180546116c29061241a565b80601f01602080910402602001604051908101604052809291908181526020018280546116ee9061241a565b801561173b5780601f106117105761010080835404028352916020019161173b565b820191906000526020600020905b81548152906001019060200180831161171e57829003601f168201915b505050505081526020016006820160009054906101000a900460ff161515151581526020016006820160019054906101000a900460ff1660ff1660ff168152602001600782015481525050905082816000019073ffffffffffffffffffffffffffffffffffffffff16908173ffffffffffffffffffffffffffffffffffffffff16815250508381602001819052508181604001819052506040518060400160405280600a81526020017f4669727374204e616d650000000000000000000000000000000000000000000081525081606001819052506040518060400160405280600b81526020017f4d6964646c65204e616d6500000000000000000000000000000000000000000081525081608001819052506040518060400160405280600981526020017f4c617374204e616d6500000000000000000000000000000000000000000000008152508160a0018190525060008160c001901515908115158152505060008160e0019060ff16908160ff168152505060008161010001818152505080600160008573ffffffffffffffffffffffffffffffffffffffff1673ffffffffffffffffffffffffffffffffffffffff16815260200190815260200160002060008201518160000160006101000a81548173ffffffffffffffffffffffffffffffffffffffff021916908373ffffffffffffffffffffffffffffffffffffffff160217905550602082015181600101908051906020019061195f929190611a8c565b50604082015181600201908051906020019061197c929190611a8c565b506060820151816003019080519060200190611999929190611a8c565b5060808201518160040190805190602001906119b6929190611a8c565b5060a08201518160050190805190602001906119d3929190611a8c565b5060c08201518160060160006101000a81548160ff02191690831515021790555060e08201518160060160016101000a81548160ff021916908360ff16021790555061010082015181600701559050506002839080600181540180825580915050600190039060005260206000200160009091909190916101000a81548173ffffffffffffffffffffffffffffffffffffffff021916908373ffffffffffffffffffffffffffffffffffffffff16021790555050505050565b828054611a989061241a565b90600052602060002090601f016020900481019282611aba5760008555611b01565b82601f10611ad357805160ff1916838001178555611b01565b82800160010185558215611b01579182015b82811115611b00578251825591602001919060010190611ae5565b5b509050611b0e9190611b72565b5090565b828054828255906000526020600020908101928215611b61579160200282015b82811115611b60578251829080519060200190611b50929190611a8c565b5091602001919060010190611b32565b5b509050611b6e9190611b8f565b5090565b5b80821115611b8b576000816000905550600101611b73565b5090565b5b80821115611baf5760008181611ba69190611bb3565b50600101611b90565b5090565b508054611bbf9061241a565b6000825580601f10611bd15750611bf0565b601f016020900490600052602060002090810190611bef9190611b72565b5b50565b6000611c06611c01846122e1565b6122bc565b905082815260208101848484011115611c1e57600080fd5b611c298482856123d8565b509392505050565b600081359050611c408161258d565b92915050565b600081359050611c55816125a4565b92915050565b600082601f830112611c6c57600080fd5b8135611c7c848260208601611bf3565b91505092915050565b600081359050611c94816125bb565b92915050565b600060208284031215611cac57600080fd5b6000611cba84828501611c31565b91505092915050565b600060208284031215611cd557600080fd5b600082013567ffffffffffffffff811115611cef57600080fd5b611cfb84828501611c5b565b91505092915050565b600080600060608486031215611d1957600080fd5b600084013567ffffffffffffffff811115611d3357600080fd5b611d3f86828701611c5b565b9350506020611d5086828701611c31565b925050604084013567ffffffffffffffff811115611d6d57600080fd5b611d7986828701611c5b565b9150509250925092565b60008060408385031215611d9657600080fd5b600083013567ffffffffffffffff811115611db057600080fd5b611dbc85828601611c5b565b925050602083013567ffffffffffffffff811115611dd957600080fd5b611de585828601611c5b565b9150509250929050565b600080600060608486031215611e0457600080fd5b600084013567ffffffffffffffff811115611e1e57600080fd5b611e2a86828701611c5b565b935050602084013567ffffffffffffffff811115611e4757600080fd5b611e5386828701611c5b565b925050604084013567ffffffffffffffff811115611e7057600080fd5b611e7c86828701611c5b565b9150509250925092565b600080600080600060a08688031215611e9e57600080fd5b600086013567ffffffffffffffff811115611eb857600080fd5b611ec488828901611c5b565b955050602086013567ffffffffffffffff811115611ee157600080fd5b611eed88828901611c5b565b945050604086013567ffffffffffffffff811115611f0a57600080fd5b611f1688828901611c5b565b9350506060611f2788828901611c46565b9250506080611f3888828901611c85565b9150509295509295909350565b6000611f518383611fdd565b905092915050565b611f6281612383565b82525050565b6000611f7382612322565b611f7d8185612345565b935083602082028501611f8f85612312565b8060005b85811015611fcb5784840389528151611fac8582611f45565b9450611fb783612338565b925060208a01995050600181019050611f93565b50829750879550505050505092915050565b6000611fe88261232d565b611ff28185612356565b93506120028185602086016123e7565b61200b816124db565b840191505092915050565b60006120218261232d565b61202b8185612367565b935061203b8185602086016123e7565b612044816124db565b840191505092915050565b600061205a8261232d565b6120648185612378565b93506120748185602086016123e7565b80840191505092915050565b600061208d601c83612367565b9150612098826124ec565b602082019050919050565b60006120b0601783612367565b91506120bb82612515565b602082019050919050565b60006120d3603783612367565b91506120de8261253e565b604082019050919050565b6120f2816123c1565b82525050565b612101816123cb565b82525050565b6000612113828461204f565b915081905092915050565b60006060820190506121336000830186611f59565b81810360208301526121458185612016565b905081810360408301526121598184612016565b9050949350505050565b6000608082019050818103600083015261217d8187612016565b905081810360208301526121918186612016565b905081810360408301526121a58185611f68565b905081810360608301526121b98184611f68565b905095945050505050565b600060c08201905081810360008301526121de8189612016565b905081810360208301526121f28188612016565b905081810360408301526122068187612016565b9050818103606083015261221a8186612016565b905061222960808301856120f8565b61223660a08301846120e9565b979650505050505050565b6000602082019050818103600083015261225a81612080565b9050919050565b6000602082019050818103600083015261227a816120a3565b9050919050565b6000602082019050818103600083015261229a816120c6565b9050919050565b60006020820190506122b660008301846120e9565b92915050565b60006122c66122d7565b90506122d2828261244c565b919050565b6000604051905090565b600067ffffffffffffffff8211156122fc576122fb6124ac565b5b612305826124db565b9050602081019050919050565b6000819050602082019050919050565b600081519050919050565b600081519050919050565b6000602082019050919050565b600082825260208201905092915050565b600082825260208201905092915050565b600082825260208201905092915050565b600081905092915050565b600061238e826123a1565b9050919050565b60008115159050919050565b600073ffffffffffffffffffffffffffffffffffffffff82169050919050565b6000819050919050565b600060ff82169050919050565b82818337600083830152505050565b60005b838110156124055780820151818401526020810190506123ea565b83811115612414576000848401525b50505050565b6000600282049050600182168061243257607f821691505b602082108114156124465761244561247d565b5b50919050565b612455826124db565b810181811067ffffffffffffffff82111715612474576124736124ac565b5b80604052505050565b7f4e487b7100000000000000000000000000000000000000000000000000000000600052602260045260246000fd5b7f4e487b7100000000000000000000000000000000000000000000000000000000600052604160045260246000fd5b6000601f19601f8301169050919050565b7f596f752063616e6e6f7420757064617465207573657220696e666f2100000000600082015250565b7f496e636f72726563742075736572206164647265737321000000000000000000600082015250565b7f596f7520646f6e27742068617665207065726d697373696f6e20746f2076696560008201527f772075736572206163636f756e742064657461696c7321000000000000000000602082015250565b61259681612383565b81146125a157600080fd5b50565b6125ad81612395565b81146125b857600080fd5b50565b6125c4816123cb565b81146125cf57600080fd5b5056fea26469706673582212209ad7380b676eb42abb1950732e21388c29d6ffbde092cd6efbd8b28bc512655164736f6c63430008040033",
  "immutableReferences": {},
  "source": "// SPDX-License-Identifier: MIT\r\n\r\n// SPDX-License-Identifier: Something Else\r\npragma solidity 0.8.4;\r\n\r\ncontract Healthcare {\r\n    address internal owner = msg.sender; //store account address that deployed the smart contract\r\n\r\n    struct User {                       //For storing user info\r\n        address userPK;\r\n        string userName;\r\n        string userRole;\r\n        string firstName;\r\n        string middleName;\r\n        string lastName;\r\n        bool gender;\r\n        uint8 age;\r\n        uint noOfRecords;\r\n    }\r\n    mapping(address => User) user;\r\n    address[] usersArray;               //To get total number of users\r\n    \r\n    struct Document{                    //For storing user documents using unique key made of userAddr_index\r\n        string reason;\r\n        string desc;\r\n        string[] medicalDocs;\r\n        string[] bills;\r\n    }\r\n    mapping(string=>Document) documents;\r\n    \r\n    function addUser(string memory userName, address userAddr,string memory userRole) public{\r\n        require(userAddr==msg.sender && msg.sender!=owner,\"Incorrect user address!\");\r\n            User memory u = user[userAddr];\r\n            u.userPK=userAddr;\r\n            u.userName=userName;\r\n            u.userRole=userRole;\r\n            u.firstName=\"First Name\";\r\n            u.middleName=\"Middle Name\";\r\n            u.lastName=\"Last Name\";\r\n            u.gender=false;\r\n            u.age=0;\r\n            u.noOfRecords=0;\r\n            user[userAddr]=u;\r\n            usersArray.push(userAddr);\r\n    }\r\n    \r\n    function updateUserInfo(string memory fName,string memory mName,string memory lName,bool gender, uint8 age) public{\r\n        require(msg.sender!=owner,\"You cannot update user info!\");\r\n        user[msg.sender].firstName=fName;\r\n        user[msg.sender].middleName=mName;\r\n        user[msg.sender].lastName=lName;\r\n        user[msg.sender].gender=gender;\r\n        user[msg.sender].age=age;\r\n    }\r\n    \r\n    function showUsersCount() public view returns(uint256){\r\n        return(usersArray.length);\r\n    }\r\n    \r\n    function showAccInfo(address userAddr) public view returns(address Account,string memory UserName,string memory UserRole){\r\n        require(msg.sender==userAddr && userAddr != owner ,\"You don't have permission to view user account details!\");\r\n        return(user[userAddr].userPK,user[userAddr].userName,user[userAddr].userRole); \r\n    }\r\n    \r\n    function showPersonalInfo(address userAddr) public view returns(string memory FirstName,string memory MiddleName,string memory LastName,string memory Gender,uint8 Age,uint TotalRecords){\r\n        string memory gender;\r\n        if(user[userAddr].gender)\r\n            gender=\"Female\";\r\n        else\r\n            gender=\"Male\";\r\n        return(user[userAddr].firstName,user[userAddr].middleName,user[userAddr].lastName,gender,user[userAddr].age,user[userAddr].noOfRecords); \r\n    }\r\n        \r\n    function addRecord(string memory index,string memory _reason,string memory _desc) public payable{\r\n        Document memory d = documents[index];\r\n        d.reason=_reason;\r\n        d.desc=_desc;\r\n        documents[index]=d;\r\n    }\r\n    function addMedicalDocs(string memory index,string memory hash) public payable{\r\n     documents[index].medicalDocs.push(hash);   \r\n    }\r\n    \r\n    function addBills(string memory index,string memory hash) public payable{\r\n     documents[index].bills.push(hash);   \r\n    }\r\n    \r\n    function showRecord(string memory index) public view returns(string memory Reason, string memory Description,string[] memory MedicalDocs,string[] memory Bills){\r\n        return(documents[index].reason,documents[index].desc, documents[index].medicalDocs,documents[index].bills);\r\n    }\r\n    \r\n}\r\n",
  "sourcePath": "E:/BE_project/project/contracts/Healthcare.sol",
  "compiler": {
    "name": "solc",
    "version": "0.8.4+commit.c7e474f2.Emscripten.clang"
  },
  "schemaVersion": "3.3.1",
  "updatedAt": "2021-05-13T07:44:56.490Z",
  "networkType": "ethereum",
  "devdoc": {
    "kind": "dev",
    "methods": {},
    "version": 1
  },
  "userdoc": {
    "kind": "user",
    "methods": {},
    "version": 1
  }
}