{
  "contractName": "Healthcare",
  "abi": [
    {
      "inputs": [
        {
          "internalType": "string",
          "name": "userName",
          "type": "string"
        },
        {
          "internalType": "address",
          "name": "userAddr",
          "type": "address"
        },
        {
          "internalType": "string",
          "name": "userRole",
          "type": "string"
        }
      ],
      "name": "addUser",
      "outputs": [],
      "stateMutability": "nonpayable",
      "type": "function"
    },
    {
      "inputs": [
        {
          "internalType": "string",
          "name": "fName",
          "type": "string"
        },
        {
          "internalType": "string",
          "name": "mName",
          "type": "string"
        },
        {
          "internalType": "string",
          "name": "lName",
          "type": "string"
        },
        {
          "internalType": "bool",
          "name": "gender",
          "type": "bool"
        },
        {
          "internalType": "uint8",
          "name": "age",
          "type": "uint8"
        }
      ],
      "name": "updateUserInfo",
      "outputs": [],
      "stateMutability": "nonpayable",
      "type": "function"
    },
    {
      "inputs": [],
      "name": "showUsersCount",
      "outputs": [
        {
          "internalType": "uint256",
          "name": "",
          "type": "uint256"
        }
      ],
      "stateMutability": "view",
      "type": "function",
      "constant": true
    },
    {
      "inputs": [
        {
          "internalType": "address",
          "name": "userAddr",
          "type": "address"
        }
      ],
      "name": "showAccInfo",
      "outputs": [
        {
          "internalType": "address",
          "name": "Account",
          "type": "address"
        },
        {
          "internalType": "string",
          "name": "UserName",
          "type": "string"
        },
        {
          "internalType": "string",
          "name": "UserRole",
          "type": "string"
        }
      ],
      "stateMutability": "view",
      "type": "function",
      "constant": true
    },
    {
      "inputs": [
        {
          "internalType": "address",
          "name": "userAddr",
          "type": "address"
        }
      ],
      "name": "showPersonalInfo",
      "outputs": [
        {
          "internalType": "string",
          "name": "FirstName",
          "type": "string"
        },
        {
          "internalType": "string",
          "name": "MiddleName",
          "type": "string"
        },
        {
          "internalType": "string",
          "name": "LastName",
          "type": "string"
        },
        {
          "internalType": "string",
          "name": "Gender",
          "type": "string"
        },
        {
          "internalType": "uint8",
          "name": "Age",
          "type": "uint8"
        },
        {
          "internalType": "uint256",
          "name": "TotalRecords",
          "type": "uint256"
        }
      ],
      "stateMutability": "view",
      "type": "function",
      "constant": true
    },
    {
      "inputs": [
        {
          "internalType": "address",
          "name": "userAddr",
          "type": "address"
        }
      ],
      "name": "showUserName",
      "outputs": [
        {
          "internalType": "string",
          "name": "UserName",
          "type": "string"
        }
      ],
      "stateMutability": "view",
      "type": "function",
      "constant": true
    },
    {
      "inputs": [
        {
          "internalType": "string",
          "name": "index",
          "type": "string"
        },
        {
          "internalType": "address",
          "name": "userAddr",
          "type": "address"
        },
        {
          "internalType": "string",
          "name": "_reason",
          "type": "string"
        },
        {
          "internalType": "string",
          "name": "_desc",
          "type": "string"
        }
      ],
      "name": "addRecord",
      "outputs": [],
      "stateMutability": "payable",
      "type": "function",
      "payable": true
    },
    {
      "inputs": [
        {
          "internalType": "string",
          "name": "index",
          "type": "string"
        },
        {
          "internalType": "string",
          "name": "hash",
          "type": "string"
        }
      ],
      "name": "addMedicalDocs",
      "outputs": [],
      "stateMutability": "payable",
      "type": "function",
      "payable": true
    },
    {
      "inputs": [
        {
          "internalType": "string",
          "name": "index",
          "type": "string"
        },
        {
          "internalType": "string",
          "name": "hash",
          "type": "string"
        }
      ],
      "name": "addBills",
      "outputs": [],
      "stateMutability": "payable",
      "type": "function",
      "payable": true
    },
    {
      "inputs": [
        {
          "internalType": "string",
          "name": "index",
          "type": "string"
        }
      ],
      "name": "showRecord",
      "outputs": [
        {
          "internalType": "string",
          "name": "Reason",
          "type": "string"
        },
        {
          "internalType": "string",
          "name": "Description",
          "type": "string"
        },
        {
          "internalType": "string[]",
          "name": "MedicalDocs",
          "type": "string[]"
        },
        {
          "internalType": "string[]",
          "name": "Bills",
          "type": "string[]"
        }
      ],
      "stateMutability": "view",
      "type": "function",
      "constant": true
    },
    {
      "inputs": [
        {
          "internalType": "bool",
          "name": "_generated",
          "type": "bool"
        },
        {
          "internalType": "address",
          "name": "userAddr",
          "type": "address"
        },
        {
          "internalType": "string",
          "name": "_key",
          "type": "string"
        }
      ],
      "name": "createClaimRequest",
      "outputs": [],
      "stateMutability": "payable",
      "type": "function",
      "payable": true
    },
    {
      "inputs": [
        {
          "internalType": "address",
          "name": "userAddr",
          "type": "address"
        }
      ],
      "name": "showClaimRequest",
      "outputs": [
        {
          "internalType": "string",
          "name": "Key",
          "type": "string"
        },
        {
          "internalType": "bool",
          "name": "Request_Generated",
          "type": "bool"
        },
        {
          "internalType": "string",
          "name": "Request_Status",
          "type": "string"
        }
      ],
      "stateMutability": "view",
      "type": "function",
      "constant": true
    },
    {
      "inputs": [
        {
          "internalType": "address",
          "name": "userAddr",
          "type": "address"
        }
      ],
      "name": "grantClaimRequest",
      "outputs": [],
      "stateMutability": "payable",
      "type": "function",
      "payable": true
    },
    {
      "inputs": [
        {
          "internalType": "address",
          "name": "userAddr",
          "type": "address"
        }
      ],
      "name": "rejectClaimRequest",
      "outputs": [],
      "stateMutability": "payable",
      "type": "function",
      "payable": true
    },
    {
      "inputs": [
        {
          "internalType": "address",
          "name": "userAddr",
          "type": "address"
        }
      ],
      "name": "deleteClaimRequest",
      "outputs": [],
      "stateMutability": "payable",
      "type": "function",
      "payable": true
    }
  ],
  "bytecode": "0x6080604052336000806101000a81548173ffffffffffffffffffffffffffffffffffffffff021916908373ffffffffffffffffffffffffffffffffffffffff16021790555034801561005057600080fd5b506133d8806100606000396000f3fe6080604052600436106100e85760003560e01c80637e7fa05e1161008a578063c6cd372d11610059578063c6cd372d146102aa578063d4b31731146102e7578063f800cdf914610310578063ff6fe1fd1461032c576100e8565b80637e7fa05e14610217578063b087a2ed14610233578063b66520ce14610272578063c04357c71461028e576100e8565b80633d207c80116100c65780633d207c801461019a5780635858d03f146101b657806361a33ed9146101d25780636616c266146101ee576100e8565b8063023a3bf5146100ed578063200b0ff21461012f5780632067bea71461015a575b600080fd5b3480156100f957600080fd5b50610114600480360381019061010f9190612901565b61036b565b60405161012696959493929190612f1c565b60405180910390f35b34801561013b57600080fd5b50610144610755565b6040516101519190612ff9565b60405180910390f35b34801561016657600080fd5b50610181600480360381019061017c9190612991565b610762565b6040516101919493929190612ebb565b60405180910390f35b6101b460048036038101906101af9190612901565b610ab9565b005b6101d060048036038101906101cb9190612afc565b610ba3565b005b6101ec60048036038101906101e79190612afc565b610c02565b005b3480156101fa57600080fd5b5061021560048036038101906102109190612b68565b610c61565b005b610231600480360381019061022c9190612a51565b610eb1565b005b34801561023f57600080fd5b5061025a60048036038101906102559190612901565b6112bb565b60405161026993929190612e0f565b60405180910390f35b61028c6004803603810190610287919061292a565b611592565b005b6102a860048036038101906102a39190612901565b611a00565b005b3480156102b657600080fd5b506102d160048036038101906102cc9190612901565b611bab565b6040516102de9190612e54565b60405180910390f35b3480156102f357600080fd5b5061030e600480360381019061030991906129d2565b611c7f565b005b61032a60048036038101906103259190612901565b61240a565b005b34801561033857600080fd5b50610353600480360381019061034e9190612901565b6124f4565b60405161036293929190612e76565b60405180910390f35b6060806060806000806060600160008973ffffffffffffffffffffffffffffffffffffffff1673ffffffffffffffffffffffffffffffffffffffff16815260200190815260200160002060060160009054906101000a900460ff1615610408576040518060400160405280600681526020017f46656d616c6500000000000000000000000000000000000000000000000000008152509050610441565b6040518060400160405280600481526020017f4d616c650000000000000000000000000000000000000000000000000000000081525090505b600160008973ffffffffffffffffffffffffffffffffffffffff1673ffffffffffffffffffffffffffffffffffffffff168152602001908152602001600020600301600160008a73ffffffffffffffffffffffffffffffffffffffff1673ffffffffffffffffffffffffffffffffffffffff168152602001908152602001600020600401600160008b73ffffffffffffffffffffffffffffffffffffffff1673ffffffffffffffffffffffffffffffffffffffff16815260200190815260200160002060050183600160008d73ffffffffffffffffffffffffffffffffffffffff1673ffffffffffffffffffffffffffffffffffffffff16815260200190815260200160002060060160019054906101000a900460ff16600160008e73ffffffffffffffffffffffffffffffffffffffff1673ffffffffffffffffffffffffffffffffffffffff168152602001908152602001600020600701548580546105a790613172565b80601f01602080910402602001604051908101604052809291908181526020018280546105d390613172565b80156106205780601f106105f557610100808354040283529160200191610620565b820191906000526020600020905b81548152906001019060200180831161060357829003601f168201915b5050505050955084805461063390613172565b80601f016020809104026020016040519081016040528092919081815260200182805461065f90613172565b80156106ac5780601f10610681576101008083540402835291602001916106ac565b820191906000526020600020905b81548152906001019060200180831161068f57829003601f168201915b505050505094508380546106bf90613172565b80601f01602080910402602001604051908101604052809291908181526020018280546106eb90613172565b80156107385780601f1061070d57610100808354040283529160200191610738565b820191906000526020600020905b81548152906001019060200180831161071b57829003601f168201915b505050505093509650965096509650965096505091939550919395565b6000600280549050905090565b6060806060806003856040516107789190612df8565b90815260200160405180910390206000016003866040516107999190612df8565b90815260200160405180910390206001016003876040516107ba9190612df8565b90815260200160405180910390206002016003886040516107db9190612df8565b90815260200160405180910390206003018380546107f890613172565b80601f016020809104026020016040519081016040528092919081815260200182805461082490613172565b80156108715780601f1061084657610100808354040283529160200191610871565b820191906000526020600020905b81548152906001019060200180831161085457829003601f168201915b5050505050935082805461088490613172565b80601f01602080910402602001604051908101604052809291908181526020018280546108b090613172565b80156108fd5780601f106108d2576101008083540402835291602001916108fd565b820191906000526020600020905b8154815290600101906020018083116108e057829003601f168201915b5050505050925081805480602002602001604051908101604052809291908181526020016000905b828210156109d157838290600052602060002001805461094490613172565b80601f016020809104026020016040519081016040528092919081815260200182805461097090613172565b80156109bd5780601f10610992576101008083540402835291602001916109bd565b820191906000526020600020905b8154815290600101906020018083116109a057829003601f168201915b505050505081526020019060010190610925565b50505050915080805480602002602001604051908101604052809291908181526020016000905b82821015610aa4578382906000526020600020018054610a1790613172565b80601f0160208091040260200160405190810160405280929190818152602001828054610a4390613172565b8015610a905780601f10610a6557610100808354040283529160200191610a90565b820191906000526020600020905b815481529060010190602001808311610a7357829003601f168201915b5050505050815260200190600101906109f8565b50505050905093509350935093509193509193565b6001600460008373ffffffffffffffffffffffffffffffffffffffff1673ffffffffffffffffffffffffffffffffffffffff16815260200190815260200160002060020160016101000a81548160ff0219169083151502179055506040518060400160405280600781526020017f4772616e74656400000000000000000000000000000000000000000000000000815250600460008373ffffffffffffffffffffffffffffffffffffffff1673ffffffffffffffffffffffffffffffffffffffff1681526020019081526020016000206003019080519060200190610b9f9291906126f3565b5050565b600382604051610bb39190612df8565b908152602001604051809103902060030181908060018154018082558091505060019003906000526020600020016000909190919091509080519060200190610bfd9291906126f3565b505050565b600382604051610c129190612df8565b908152602001604051809103902060020181908060018154018082558091505060019003906000526020600020016000909190919091509080519060200190610c5c9291906126f3565b505050565b60008054906101000a900473ffffffffffffffffffffffffffffffffffffffff1673ffffffffffffffffffffffffffffffffffffffff163373ffffffffffffffffffffffffffffffffffffffff161415610cf0576040517f08c379a0000000000000000000000000000000000000000000000000000000008152600401610ce790612f99565b60405180910390fd5b84600160003373ffffffffffffffffffffffffffffffffffffffff1673ffffffffffffffffffffffffffffffffffffffff1681526020019081526020016000206003019080519060200190610d469291906126f3565b5083600160003373ffffffffffffffffffffffffffffffffffffffff1673ffffffffffffffffffffffffffffffffffffffff1681526020019081526020016000206004019080519060200190610d9d9291906126f3565b5082600160003373ffffffffffffffffffffffffffffffffffffffff1673ffffffffffffffffffffffffffffffffffffffff1681526020019081526020016000206005019080519060200190610df49291906126f3565b5081600160003373ffffffffffffffffffffffffffffffffffffffff1673ffffffffffffffffffffffffffffffffffffffff16815260200190815260200160002060060160006101000a81548160ff02191690831515021790555080600160003373ffffffffffffffffffffffffffffffffffffffff1673ffffffffffffffffffffffffffffffffffffffff16815260200190815260200160002060060160016101000a81548160ff021916908360ff1602179055505050505050565b6000600385604051610ec39190612df8565b9081526020016040518091039020604051806080016040529081600082018054610eec90613172565b80601f0160208091040260200160405190810160405280929190818152602001828054610f1890613172565b8015610f655780601f10610f3a57610100808354040283529160200191610f65565b820191906000526020600020905b815481529060010190602001808311610f4857829003601f168201915b50505050508152602001600182018054610f7e90613172565b80601f0160208091040260200160405190810160405280929190818152602001828054610faa90613172565b8015610ff75780601f10610fcc57610100808354040283529160200191610ff7565b820191906000526020600020905b815481529060010190602001808311610fda57829003601f168201915b5050505050815260200160028201805480602002602001604051908101604052809291908181526020016000905b828210156110d157838290600052602060002001805461104490613172565b80601f016020809104026020016040519081016040528092919081815260200182805461107090613172565b80156110bd5780601f10611092576101008083540402835291602001916110bd565b820191906000526020600020905b8154815290600101906020018083116110a057829003601f168201915b505050505081526020019060010190611025565b50505050815260200160038201805480602002602001604051908101604052809291908181526020016000905b828210156111aa57838290600052602060002001805461111d90613172565b80601f016020809104026020016040519081016040528092919081815260200182805461114990613172565b80156111965780601f1061116b57610100808354040283529160200191611196565b820191906000526020600020905b81548152906001019060200180831161117957829003601f168201915b5050505050815260200190600101906110fe565b50505050815250509050828160000181905250818160200181905250806003866040516111d79190612df8565b908152602001604051809103902060008201518160000190805190602001906112019291906126f3565b50602082015181600101908051906020019061121e9291906126f3565b50604082015181600201908051906020019061123b929190612779565b506060820151816003019080519060200190611258929190612779565b50905050600160008573ffffffffffffffffffffffffffffffffffffffff1673ffffffffffffffffffffffffffffffffffffffff16815260200190815260200160002060070160008154809291906112af906131d5565b91905055505050505050565b60006060808373ffffffffffffffffffffffffffffffffffffffff163373ffffffffffffffffffffffffffffffffffffffff16148015611347575060008054906101000a900473ffffffffffffffffffffffffffffffffffffffff1673ffffffffffffffffffffffffffffffffffffffff168473ffffffffffffffffffffffffffffffffffffffff1614155b611386576040517f08c379a000000000000000000000000000000000000000000000000000000000815260040161137d90612fd9565b60405180910390fd5b600160008573ffffffffffffffffffffffffffffffffffffffff1673ffffffffffffffffffffffffffffffffffffffff16815260200190815260200160002060000160009054906101000a900473ffffffffffffffffffffffffffffffffffffffff16600160008673ffffffffffffffffffffffffffffffffffffffff1673ffffffffffffffffffffffffffffffffffffffff168152602001908152602001600020600101600160008773ffffffffffffffffffffffffffffffffffffffff1673ffffffffffffffffffffffffffffffffffffffff16815260200190815260200160002060020181805461147990613172565b80601f01602080910402602001604051908101604052809291908181526020018280546114a590613172565b80156114f25780601f106114c7576101008083540402835291602001916114f2565b820191906000526020600020905b8154815290600101906020018083116114d557829003601f168201915b5050505050915080805461150590613172565b80601f016020809104026020016040519081016040528092919081815260200182805461153190613172565b801561157e5780601f106115535761010080835404028352916020019161157e565b820191906000526020600020905b81548152906001019060200180831161156157829003601f168201915b505050505090509250925092509193909250565b3373ffffffffffffffffffffffffffffffffffffffff168273ffffffffffffffffffffffffffffffffffffffff16148015611619575060008054906101000a900473ffffffffffffffffffffffffffffffffffffffff1673ffffffffffffffffffffffffffffffffffffffff163373ffffffffffffffffffffffffffffffffffffffff1614155b611658576040517f08c379a000000000000000000000000000000000000000000000000000000000815260040161164f90612fb9565b60405180910390fd5b6000600460008473ffffffffffffffffffffffffffffffffffffffff1673ffffffffffffffffffffffffffffffffffffffff1681526020019081526020016000206040518060a00160405290816000820160009054906101000a900473ffffffffffffffffffffffffffffffffffffffff1673ffffffffffffffffffffffffffffffffffffffff1673ffffffffffffffffffffffffffffffffffffffff16815260200160018201805461170a90613172565b80601f016020809104026020016040519081016040528092919081815260200182805461173690613172565b80156117835780601f1061175857610100808354040283529160200191611783565b820191906000526020600020905b81548152906001019060200180831161176657829003601f168201915b505050505081526020016002820160009054906101000a900460ff161515151581526020016002820160019054906101000a900460ff161515151581526020016003820180546117d290613172565b80601f01602080910402602001604051908101604052809291908181526020018280546117fe90613172565b801561184b5780601f106118205761010080835404028352916020019161184b565b820191906000526020600020905b81548152906001019060200180831161182e57829003601f168201915b505050505081525050905082816000019073ffffffffffffffffffffffffffffffffffffffff16908173ffffffffffffffffffffffffffffffffffffffff16815250508181602001819052508381604001901515908115158152505060008160600190151590811515815250506040518060400160405280600781526020017f50656e64696e6700000000000000000000000000000000000000000000000000815250816080018190525080600460008573ffffffffffffffffffffffffffffffffffffffff1673ffffffffffffffffffffffffffffffffffffffff16815260200190815260200160002060008201518160000160006101000a81548173ffffffffffffffffffffffffffffffffffffffff021916908373ffffffffffffffffffffffffffffffffffffffff16021790555060208201518160010190805190602001906119999291906126f3565b5060408201518160020160006101000a81548160ff02191690831515021790555060608201518160020160016101000a81548160ff02191690831515021790555060808201518160030190805190602001906119f69291906126f3565b5090505050505050565b60405180602001604052806000815250600460008373ffffffffffffffffffffffffffffffffffffffff1673ffffffffffffffffffffffffffffffffffffffff1681526020019081526020016000206001019080519060200190611a659291906126f3565b506000600460008373ffffffffffffffffffffffffffffffffffffffff1673ffffffffffffffffffffffffffffffffffffffff16815260200190815260200160002060020160006101000a81548160ff0219169083151502179055506000600460008373ffffffffffffffffffffffffffffffffffffffff1673ffffffffffffffffffffffffffffffffffffffff16815260200190815260200160002060020160016101000a81548160ff0219169083151502179055506040518060400160405280600781526020017f44656c6574656400000000000000000000000000000000000000000000000000815250600460008373ffffffffffffffffffffffffffffffffffffffff1673ffffffffffffffffffffffffffffffffffffffff1681526020019081526020016000206003019080519060200190611ba79291906126f3565b5050565b6060600160008373ffffffffffffffffffffffffffffffffffffffff1673ffffffffffffffffffffffffffffffffffffffff1681526020019081526020016000206001018054611bfa90613172565b80601f0160208091040260200160405190810160405280929190818152602001828054611c2690613172565b8015611c735780601f10611c4857610100808354040283529160200191611c73565b820191906000526020600020905b815481529060010190602001808311611c5657829003601f168201915b50505050509050919050565b3373ffffffffffffffffffffffffffffffffffffffff168273ffffffffffffffffffffffffffffffffffffffff16148015611d06575060008054906101000a900473ffffffffffffffffffffffffffffffffffffffff1673ffffffffffffffffffffffffffffffffffffffff163373ffffffffffffffffffffffffffffffffffffffff1614155b611d45576040517f08c379a0000000000000000000000000000000000000000000000000000000008152600401611d3c90612fb9565b60405180910390fd5b6000600160008473ffffffffffffffffffffffffffffffffffffffff1673ffffffffffffffffffffffffffffffffffffffff168152602001908152602001600020604051806101200160405290816000820160009054906101000a900473ffffffffffffffffffffffffffffffffffffffff1673ffffffffffffffffffffffffffffffffffffffff1673ffffffffffffffffffffffffffffffffffffffff168152602001600182018054611df890613172565b80601f0160208091040260200160405190810160405280929190818152602001828054611e2490613172565b8015611e715780601f10611e4657610100808354040283529160200191611e71565b820191906000526020600020905b815481529060010190602001808311611e5457829003601f168201915b50505050508152602001600282018054611e8a90613172565b80601f0160208091040260200160405190810160405280929190818152602001828054611eb690613172565b8015611f035780601f10611ed857610100808354040283529160200191611f03565b820191906000526020600020905b815481529060010190602001808311611ee657829003601f168201915b50505050508152602001600382018054611f1c90613172565b80601f0160208091040260200160405190810160405280929190818152602001828054611f4890613172565b8015611f955780601f10611f6a57610100808354040283529160200191611f95565b820191906000526020600020905b815481529060010190602001808311611f7857829003601f168201915b50505050508152602001600482018054611fae90613172565b80601f0160208091040260200160405190810160405280929190818152602001828054611fda90613172565b80156120275780601f10611ffc57610100808354040283529160200191612027565b820191906000526020600020905b81548152906001019060200180831161200a57829003601f168201915b5050505050815260200160058201805461204090613172565b80601f016020809104026020016040519081016040528092919081815260200182805461206c90613172565b80156120b95780601f1061208e576101008083540402835291602001916120b9565b820191906000526020600020905b81548152906001019060200180831161209c57829003601f168201915b505050505081526020016006820160009054906101000a900460ff161515151581526020016006820160019054906101000a900460ff1660ff1660ff168152602001600782015481525050905082816000019073ffffffffffffffffffffffffffffffffffffffff16908173ffffffffffffffffffffffffffffffffffffffff16815250508381602001819052508181604001819052506040518060400160405280600a81526020017f4669727374204e616d650000000000000000000000000000000000000000000081525081606001819052506040518060400160405280600b81526020017f4d6964646c65204e616d6500000000000000000000000000000000000000000081525081608001819052506040518060400160405280600981526020017f4c617374204e616d6500000000000000000000000000000000000000000000008152508160a0018190525060008160c001901515908115158152505060008160e0019060ff16908160ff168152505060008161010001818152505080600160008573ffffffffffffffffffffffffffffffffffffffff1673ffffffffffffffffffffffffffffffffffffffff16815260200190815260200160002060008201518160000160006101000a81548173ffffffffffffffffffffffffffffffffffffffff021916908373ffffffffffffffffffffffffffffffffffffffff16021790555060208201518160010190805190602001906122dd9291906126f3565b5060408201518160020190805190602001906122fa9291906126f3565b5060608201518160030190805190602001906123179291906126f3565b5060808201518160040190805190602001906123349291906126f3565b5060a08201518160050190805190602001906123519291906126f3565b5060c08201518160060160006101000a81548160ff02191690831515021790555060e08201518160060160016101000a81548160ff021916908360ff16021790555061010082015181600701559050506002839080600181540180825580915050600190039060005260206000200160009091909190916101000a81548173ffffffffffffffffffffffffffffffffffffffff021916908373ffffffffffffffffffffffffffffffffffffffff16021790555050505050565b6000600460008373ffffffffffffffffffffffffffffffffffffffff1673ffffffffffffffffffffffffffffffffffffffff16815260200190815260200160002060020160016101000a81548160ff0219169083151502179055506040518060400160405280600881526020017f52656a6563746564000000000000000000000000000000000000000000000000815250600460008373ffffffffffffffffffffffffffffffffffffffff1673ffffffffffffffffffffffffffffffffffffffff16815260200190815260200160002060030190805190602001906124f09291906126f3565b5050565b606060006060600460008573ffffffffffffffffffffffffffffffffffffffff1673ffffffffffffffffffffffffffffffffffffffff168152602001908152602001600020600101600460008673ffffffffffffffffffffffffffffffffffffffff1673ffffffffffffffffffffffffffffffffffffffff16815260200190815260200160002060020160009054906101000a900460ff16600460008773ffffffffffffffffffffffffffffffffffffffff1673ffffffffffffffffffffffffffffffffffffffff1681526020019081526020016000206003018280546125da90613172565b80601f016020809104026020016040519081016040528092919081815260200182805461260690613172565b80156126535780601f1061262857610100808354040283529160200191612653565b820191906000526020600020905b81548152906001019060200180831161263657829003601f168201915b5050505050925080805461266690613172565b80601f016020809104026020016040519081016040528092919081815260200182805461269290613172565b80156126df5780601f106126b4576101008083540402835291602001916126df565b820191906000526020600020905b8154815290600101906020018083116126c257829003601f168201915b505050505090509250925092509193909250565b8280546126ff90613172565b90600052602060002090601f0160209004810192826127215760008555612768565b82601f1061273a57805160ff1916838001178555612768565b82800160010185558215612768579182015b8281111561276757825182559160200191906001019061274c565b5b50905061277591906127d9565b5090565b8280548282559060005260206000209081019282156127c8579160200282015b828111156127c75782518290805190602001906127b79291906126f3565b5091602001919060010190612799565b5b5090506127d591906127f6565b5090565b5b808211156127f25760008160009055506001016127da565b5090565b5b80821115612816576000818161280d919061281a565b506001016127f7565b5090565b50805461282690613172565b6000825580601f106128385750612857565b601f01602090049060005260206000209081019061285691906127d9565b5b50565b600061286d61286884613039565b613014565b90508281526020810184848401111561288557600080fd5b612890848285613130565b509392505050565b6000813590506128a78161335d565b92915050565b6000813590506128bc81613374565b92915050565b600082601f8301126128d357600080fd5b81356128e384826020860161285a565b91505092915050565b6000813590506128fb8161338b565b92915050565b60006020828403121561291357600080fd5b600061292184828501612898565b91505092915050565b60008060006060848603121561293f57600080fd5b600061294d868287016128ad565b935050602061295e86828701612898565b925050604084013567ffffffffffffffff81111561297b57600080fd5b612987868287016128c2565b9150509250925092565b6000602082840312156129a357600080fd5b600082013567ffffffffffffffff8111156129bd57600080fd5b6129c9848285016128c2565b91505092915050565b6000806000606084860312156129e757600080fd5b600084013567ffffffffffffffff811115612a0157600080fd5b612a0d868287016128c2565b9350506020612a1e86828701612898565b925050604084013567ffffffffffffffff811115612a3b57600080fd5b612a47868287016128c2565b9150509250925092565b60008060008060808587031215612a6757600080fd5b600085013567ffffffffffffffff811115612a8157600080fd5b612a8d878288016128c2565b9450506020612a9e87828801612898565b935050604085013567ffffffffffffffff811115612abb57600080fd5b612ac7878288016128c2565b925050606085013567ffffffffffffffff811115612ae457600080fd5b612af0878288016128c2565b91505092959194509250565b60008060408385031215612b0f57600080fd5b600083013567ffffffffffffffff811115612b2957600080fd5b612b35858286016128c2565b925050602083013567ffffffffffffffff811115612b5257600080fd5b612b5e858286016128c2565b9150509250929050565b600080600080600060a08688031215612b8057600080fd5b600086013567ffffffffffffffff811115612b9a57600080fd5b612ba6888289016128c2565b955050602086013567ffffffffffffffff811115612bc357600080fd5b612bcf888289016128c2565b945050604086013567ffffffffffffffff811115612bec57600080fd5b612bf8888289016128c2565b9350506060612c09888289016128ad565b9250506080612c1a888289016128ec565b9150509295509295909350565b6000612c338383612cce565b905092915050565b612c44816130db565b82525050565b6000612c558261307a565b612c5f818561309d565b935083602082028501612c718561306a565b8060005b85811015612cad5784840389528151612c8e8582612c27565b9450612c9983613090565b925060208a01995050600181019050612c75565b50829750879550505050505092915050565b612cc8816130ed565b82525050565b6000612cd982613085565b612ce381856130ae565b9350612cf381856020860161313f565b612cfc816132ab565b840191505092915050565b6000612d1282613085565b612d1c81856130bf565b9350612d2c81856020860161313f565b612d35816132ab565b840191505092915050565b6000612d4b82613085565b612d5581856130d0565b9350612d6581856020860161313f565b80840191505092915050565b6000612d7e601c836130bf565b9150612d89826132bc565b602082019050919050565b6000612da16017836130bf565b9150612dac826132e5565b602082019050919050565b6000612dc46037836130bf565b9150612dcf8261330e565b604082019050919050565b612de381613119565b82525050565b612df281613123565b82525050565b6000612e048284612d40565b915081905092915050565b6000606082019050612e246000830186612c3b565b8181036020830152612e368185612d07565b90508181036040830152612e4a8184612d07565b9050949350505050565b60006020820190508181036000830152612e6e8184612d07565b905092915050565b60006060820190508181036000830152612e908186612d07565b9050612e9f6020830185612cbf565b8181036040830152612eb18184612d07565b9050949350505050565b60006080820190508181036000830152612ed58187612d07565b90508181036020830152612ee98186612d07565b90508181036040830152612efd8185612c4a565b90508181036060830152612f118184612c4a565b905095945050505050565b600060c0820190508181036000830152612f368189612d07565b90508181036020830152612f4a8188612d07565b90508181036040830152612f5e8187612d07565b90508181036060830152612f728186612d07565b9050612f816080830185612de9565b612f8e60a0830184612dda565b979650505050505050565b60006020820190508181036000830152612fb281612d71565b9050919050565b60006020820190508181036000830152612fd281612d94565b9050919050565b60006020820190508181036000830152612ff281612db7565b9050919050565b600060208201905061300e6000830184612dda565b92915050565b600061301e61302f565b905061302a82826131a4565b919050565b6000604051905090565b600067ffffffffffffffff8211156130545761305361327c565b5b61305d826132ab565b9050602081019050919050565b6000819050602082019050919050565b600081519050919050565b600081519050919050565b6000602082019050919050565b600082825260208201905092915050565b600082825260208201905092915050565b600082825260208201905092915050565b600081905092915050565b60006130e6826130f9565b9050919050565b60008115159050919050565b600073ffffffffffffffffffffffffffffffffffffffff82169050919050565b6000819050919050565b600060ff82169050919050565b82818337600083830152505050565b60005b8381101561315d578082015181840152602081019050613142565b8381111561316c576000848401525b50505050565b6000600282049050600182168061318a57607f821691505b6020821081141561319e5761319d61324d565b5b50919050565b6131ad826132ab565b810181811067ffffffffffffffff821117156131cc576131cb61327c565b5b80604052505050565b60006131e082613119565b91507fffffffffffffffffffffffffffffffffffffffffffffffffffffffffffffffff8214156132135761321261321e565b5b600182019050919050565b7f4e487b7100000000000000000000000000000000000000000000000000000000600052601160045260246000fd5b7f4e487b7100000000000000000000000000000000000000000000000000000000600052602260045260246000fd5b7f4e487b7100000000000000000000000000000000000000000000000000000000600052604160045260246000fd5b6000601f19601f8301169050919050565b7f596f752063616e6e6f7420757064617465207573657220696e666f2100000000600082015250565b7f496e636f72726563742075736572206164647265737321000000000000000000600082015250565b7f596f7520646f6e27742068617665207065726d697373696f6e20746f2076696560008201527f772075736572206163636f756e742064657461696c7321000000000000000000602082015250565b613366816130db565b811461337157600080fd5b50565b61337d816130ed565b811461338857600080fd5b50565b61339481613123565b811461339f57600080fd5b5056fea264697066735822122080494faf76a004dbd5a0569b911f14e063b4c0a247256ea29af02ea72ec5507f64736f6c63430008040033",
  "immutableReferences": {},
  "source": "// SPDX-License-Identifier: MIT\r\n\r\n// SPDX-License-Identifier: Something Else\r\npragma solidity 0.8.4;\r\n\r\ncontract Healthcare {\r\n    address internal owner = msg.sender; //store account address that deployed the smart contract\r\n\r\n    struct User {                       //For storing user info\r\n        address userPK;\r\n        string userName;\r\n        string userRole;\r\n        string firstName;\r\n        string middleName;\r\n        string lastName;\r\n        bool gender;\r\n        uint8 age;\r\n        uint noOfRecords;\r\n    }\r\n    mapping(address => User) user;\r\n    address[] usersArray;               //To get total number of users\r\n    \r\n    struct Document{                    //For storing user documents using unique key made of userAddr_index\r\n        string reason;\r\n        string desc;\r\n        string[] medicalDocs;\r\n        string[] bills;\r\n    }\r\n    mapping(string=>Document) documents;\r\n    \r\n    struct InsuranceClaim{\r\n        address userPK;\r\n        string key;\r\n        bool generated;\r\n        bool granted;\r\n        string Claim_Request;\r\n    }\r\n    mapping(address => InsuranceClaim) claim;\r\n    \r\n    function addUser(string memory userName, address userAddr,string memory userRole) public{\r\n        require(userAddr==msg.sender && msg.sender!=owner,\"Incorrect user address!\");\r\n            User memory u = user[userAddr];\r\n            u.userPK=userAddr;\r\n            u.userName=userName;\r\n            u.userRole=userRole;\r\n            u.firstName=\"First Name\";\r\n            u.middleName=\"Middle Name\";\r\n            u.lastName=\"Last Name\";\r\n            u.gender=false;\r\n            u.age=0;\r\n            u.noOfRecords=0;\r\n            user[userAddr]=u;\r\n            usersArray.push(userAddr);\r\n    }\r\n    \r\n    function updateUserInfo(string memory fName,string memory mName,string memory lName,bool gender, uint8 age) public{\r\n        require(msg.sender!=owner,\"You cannot update user info!\");\r\n        user[msg.sender].firstName=fName;\r\n        user[msg.sender].middleName=mName;\r\n        user[msg.sender].lastName=lName;\r\n        user[msg.sender].gender=gender;\r\n        user[msg.sender].age=age;\r\n    }\r\n    \r\n    function showUsersCount() public view returns(uint256){\r\n        return(usersArray.length);\r\n    }\r\n    \r\n    function showAccInfo(address userAddr) public view returns(address Account,string memory UserName,string memory UserRole){\r\n        require(msg.sender==userAddr && userAddr != owner ,\"You don't have permission to view user account details!\");\r\n        return(user[userAddr].userPK,user[userAddr].userName,user[userAddr].userRole); \r\n    }\r\n    \r\n    function showPersonalInfo(address userAddr) public view returns(string memory FirstName,string memory MiddleName,string memory LastName,string memory Gender,uint8 Age,uint TotalRecords){\r\n        string memory gender;\r\n        if(user[userAddr].gender)\r\n            gender=\"Female\";\r\n        else\r\n            gender=\"Male\";\r\n        return(user[userAddr].firstName,user[userAddr].middleName,user[userAddr].lastName,gender,user[userAddr].age,user[userAddr].noOfRecords); \r\n    }\r\n    \r\n    function showUserName(address userAddr) public view returns(string memory UserName){\r\n        return(user[userAddr].userName);\r\n    }\r\n        \r\n    function addRecord(string memory index,address userAddr, string memory _reason,string memory _desc) public payable{\r\n        Document memory d = documents[index];\r\n        d.reason=_reason;\r\n        d.desc=_desc;\r\n        documents[index]=d;\r\n        user[userAddr].noOfRecords++;\r\n    }\r\n    function addMedicalDocs(string memory index,string memory hash) public payable{\r\n     documents[index].medicalDocs.push(hash);   \r\n    }\r\n    \r\n    function addBills(string memory index,string memory hash) public payable{\r\n     documents[index].bills.push(hash);   \r\n    }\r\n    \r\n    function showRecord(string memory index) public view returns(string memory Reason, string memory Description,string[] memory MedicalDocs,string[] memory Bills){\r\n        return(documents[index].reason,documents[index].desc, documents[index].medicalDocs,documents[index].bills);\r\n    }\r\n    \r\n    function createClaimRequest(bool _generated,address userAddr,string memory _key) public payable{\r\n        require(userAddr==msg.sender && msg.sender!=owner,\"Incorrect user address!\");\r\n        InsuranceClaim memory ic= claim[userAddr];\r\n        ic.userPK=userAddr;\r\n        ic.key=_key;\r\n        ic.generated=_generated;\r\n        ic.granted=false;\r\n        ic.Claim_Request=\"Pending\";\r\n        claim[userAddr]=ic;\r\n    }\r\n    \r\n    function showClaimRequest(address userAddr) public view returns(string memory Key,bool Request_Generated,string memory Request_Status){\r\n        return(claim[userAddr].key,claim[userAddr].generated,claim[userAddr].Claim_Request);\r\n    }\r\n    \r\n    function grantClaimRequest(address userAddr) public payable{\r\n        claim[userAddr].granted=true;\r\n        claim[userAddr].Claim_Request=\"Granted\";\r\n    }\r\n    \r\n    function rejectClaimRequest(address userAddr) public payable{\r\n        claim[userAddr].granted=false;\r\n        claim[userAddr].Claim_Request=\"Rejected\";\r\n    }\r\n    \r\n    function deleteClaimRequest(address userAddr) public payable{\r\n        claim[userAddr].key='';\r\n        claim[userAddr].generated=false;\r\n        claim[userAddr].granted=false;\r\n        claim[userAddr].Claim_Request=\"Deleted\";\r\n    }\r\n    \r\n}\r\n",
  "sourcePath": "E:/BE_project/project/contracts/Healthcare.sol",
  "compiler": {
    "name": "solc",
    "version": "0.8.4+commit.c7e474f2.Emscripten.clang"
  },
  "schemaVersion": "3.3.1",
  "updatedAt": "2021-05-19T15:30:37.347Z",
  "networkType": "ethereum",
  "devdoc": {
    "kind": "dev",
    "methods": {},
    "version": 1
  },
  "userdoc": {
    "kind": "user",
    "methods": {},
    "version": 1
  }
}