{
  "contractName": "Healthcare",
  "abi": [
    {
      "inputs": [],
      "stateMutability": "nonpayable",
      "type": "constructor"
    },
    {
      "inputs": [],
      "name": "numberOfUsers",
      "outputs": [
        {
          "internalType": "uint256",
          "name": "",
          "type": "uint256"
        }
      ],
      "stateMutability": "view",
      "type": "function",
      "constant": true
    },
    {
      "inputs": [
        {
          "internalType": "address",
          "name": "",
          "type": "address"
        }
      ],
      "name": "userID",
      "outputs": [
        {
          "internalType": "uint256",
          "name": "",
          "type": "uint256"
        }
      ],
      "stateMutability": "view",
      "type": "function",
      "constant": true
    },
    {
      "inputs": [
        {
          "internalType": "uint256",
          "name": "",
          "type": "uint256"
        }
      ],
      "name": "users",
      "outputs": [
        {
          "internalType": "address",
          "name": "userPK",
          "type": "address"
        },
        {
          "internalType": "string",
          "name": "userName",
          "type": "string"
        },
        {
          "internalType": "string",
          "name": "userRole",
          "type": "string"
        }
      ],
      "stateMutability": "view",
      "type": "function",
      "constant": true
    },
    {
      "inputs": [
        {
          "internalType": "string",
          "name": "userName",
          "type": "string"
        },
        {
          "internalType": "address",
          "name": "userAddr",
          "type": "address"
        },
        {
          "internalType": "string",
          "name": "userRole",
          "type": "string"
        }
      ],
      "name": "addUser",
      "outputs": [],
      "stateMutability": "nonpayable",
      "type": "function"
    },
    {
      "inputs": [
        {
          "internalType": "string",
          "name": "userName",
          "type": "string"
        },
        {
          "internalType": "string",
          "name": "userRole",
          "type": "string"
        }
      ],
      "name": "updateUserInfo",
      "outputs": [],
      "stateMutability": "payable",
      "type": "function",
      "payable": true
    },
    {
      "inputs": [],
      "name": "showId",
      "outputs": [
        {
          "internalType": "uint256",
          "name": "",
          "type": "uint256"
        }
      ],
      "stateMutability": "view",
      "type": "function",
      "constant": true
    }
  ],
  "bytecode": "0x60806040523480156200001157600080fd5b506000600181905550600260405180606001604052803373ffffffffffffffffffffffffffffffffffffffff1681526020016040518060400160405280600581526020017f41646d696e00000000000000000000000000000000000000000000000000000081525081526020016040518060400160405280600581526020017f41646d696e000000000000000000000000000000000000000000000000000000815250815250908060018154018082558091505060019003906000526020600020906003020160009091909190915060008201518160000160006101000a81548173ffffffffffffffffffffffffffffffffffffffff021916908373ffffffffffffffffffffffffffffffffffffffff1602179055506020820151816001019080519060200190620001459291906200016d565b506040820151816002019080519060200190620001649291906200016d565b50505062000282565b8280546200017b906200021d565b90600052602060002090601f0160209004810192826200019f5760008555620001eb565b82601f10620001ba57805160ff1916838001178555620001eb565b82800160010185558215620001eb579182015b82811115620001ea578251825591602001919060010190620001cd565b5b509050620001fa9190620001fe565b5090565b5b8082111562000219576000816000905550600101620001ff565b5090565b600060028204905060018216806200023657607f821691505b602082108114156200024d576200024c62000253565b5b50919050565b7f4e487b7100000000000000000000000000000000000000000000000000000000600052602260045260246000fd5b610ba880620002926000396000f3fe6080604052600436106100555760003560e01c806309f210961461005a578063365b98b2146100855780634b3fcab5146100c457806375ce46a7146100e0578063d4b317311461010b578063eda7794e14610134575b600080fd5b34801561006657600080fd5b5061006f610171565b60405161007c91906108e2565b60405180910390f35b34801561009157600080fd5b506100ac60048036038101906100a7919061081d565b61017b565b6040516100bb9392919061089d565b60405180910390f35b6100de60048036038101906100d991906107b1565b6102e5565b005b3480156100ec57600080fd5b506100f56103f6565b60405161010291906108e2565b60405180910390f35b34801561011757600080fd5b50610132600480360381019061012d9190610732565b6103fc565b005b34801561014057600080fd5b5061015b60048036038101906101569190610709565b6105bc565b60405161016891906108e2565b60405180910390f35b6000600154905090565b6002818154811061018b57600080fd5b90600052602060002090600302016000915090508060000160009054906101000a900473ffffffffffffffffffffffffffffffffffffffff16908060010180546101d490610a43565b80601f016020809104026020016040519081016040528092919081815260200182805461020090610a43565b801561024d5780601f106102225761010080835404028352916020019161024d565b820191906000526020600020905b81548152906001019060200180831161023057829003601f168201915b50505050509080600201805461026290610a43565b80601f016020809104026020016040519081016040528092919081815260200182805461028e90610a43565b80156102db5780601f106102b0576101008083540402835291602001916102db565b820191906000526020600020905b8154815290600101906020018083116102be57829003601f168201915b5050505050905083565b60008060003373ffffffffffffffffffffffffffffffffffffffff1673ffffffffffffffffffffffffffffffffffffffff168152602001908152602001600020549050600081146103f157826002828154811061036b577f4e487b7100000000000000000000000000000000000000000000000000000000600052603260045260246000fd5b9060005260206000209060030201600101908051906020019061038f9291906105d4565b5081600282815481106103cb577f4e487b7100000000000000000000000000000000000000000000000000000000600052603260045260246000fd5b906000526020600020906003020160020190805190602001906103ef9291906105d4565b505b505050565b60015481565b60008060008473ffffffffffffffffffffffffffffffffffffffff1673ffffffffffffffffffffffffffffffffffffffff1681526020019081526020016000205414801561047657503373ffffffffffffffffffffffffffffffffffffffff168273ffffffffffffffffffffffffffffffffffffffff1614155b156105b7576002805490506000808473ffffffffffffffffffffffffffffffffffffffff1673ffffffffffffffffffffffffffffffffffffffff16815260200190815260200160002081905550600260405180606001604052808473ffffffffffffffffffffffffffffffffffffffff16815260200185815260200183815250908060018154018082558091505060019003906000526020600020906003020160009091909190915060008201518160000160006101000a81548173ffffffffffffffffffffffffffffffffffffffff021916908373ffffffffffffffffffffffffffffffffffffffff16021790555060208201518160010190805190602001906105829291906105d4565b50604082015181600201908051906020019061059f9291906105d4565b505050600180546105b0919061096f565b6001819055505b505050565b60006020528060005260406000206000915090505481565b8280546105e090610a43565b90600052602060002090601f0160209004810192826106025760008555610649565b82601f1061061b57805160ff1916838001178555610649565b82800160010185558215610649579182015b8281111561064857825182559160200191906001019061062d565b5b509050610656919061065a565b5090565b5b8082111561067357600081600090555060010161065b565b5090565b600061068a61068584610922565b6108fd565b9050828152602081018484840111156106a257600080fd5b6106ad848285610a01565b509392505050565b6000813590506106c481610b44565b92915050565b600082601f8301126106db57600080fd5b81356106eb848260208601610677565b91505092915050565b60008135905061070381610b5b565b92915050565b60006020828403121561071b57600080fd5b6000610729848285016106b5565b91505092915050565b60008060006060848603121561074757600080fd5b600084013567ffffffffffffffff81111561076157600080fd5b61076d868287016106ca565b935050602061077e868287016106b5565b925050604084013567ffffffffffffffff81111561079b57600080fd5b6107a7868287016106ca565b9150509250925092565b600080604083850312156107c457600080fd5b600083013567ffffffffffffffff8111156107de57600080fd5b6107ea858286016106ca565b925050602083013567ffffffffffffffff81111561080757600080fd5b610813858286016106ca565b9150509250929050565b60006020828403121561082f57600080fd5b600061083d848285016106f4565b91505092915050565b61084f816109c5565b82525050565b600061086082610953565b61086a818561095e565b935061087a818560208601610a10565b61088381610b33565b840191505092915050565b610897816109f7565b82525050565b60006060820190506108b26000830186610846565b81810360208301526108c48185610855565b905081810360408301526108d88184610855565b9050949350505050565b60006020820190506108f7600083018461088e565b92915050565b6000610907610918565b90506109138282610a75565b919050565b6000604051905090565b600067ffffffffffffffff82111561093d5761093c610b04565b5b61094682610b33565b9050602081019050919050565b600081519050919050565b600082825260208201905092915050565b600061097a826109f7565b9150610985836109f7565b9250827fffffffffffffffffffffffffffffffffffffffffffffffffffffffffffffffff038211156109ba576109b9610aa6565b5b828201905092915050565b60006109d0826109d7565b9050919050565b600073ffffffffffffffffffffffffffffffffffffffff82169050919050565b6000819050919050565b82818337600083830152505050565b60005b83811015610a2e578082015181840152602081019050610a13565b83811115610a3d576000848401525b50505050565b60006002820490506001821680610a5b57607f821691505b60208210811415610a6f57610a6e610ad5565b5b50919050565b610a7e82610b33565b810181811067ffffffffffffffff82111715610a9d57610a9c610b04565b5b80604052505050565b7f4e487b7100000000000000000000000000000000000000000000000000000000600052601160045260246000fd5b7f4e487b7100000000000000000000000000000000000000000000000000000000600052602260045260246000fd5b7f4e487b7100000000000000000000000000000000000000000000000000000000600052604160045260246000fd5b6000601f19601f8301169050919050565b610b4d816109c5565b8114610b5857600080fd5b50565b610b64816109f7565b8114610b6f57600080fd5b5056fea2646970667358221220d399d3e7000165cb86ef3b835cbfa8091976580565b237886eb675c9c296a4ed64736f6c63430008040033",
  "immutableReferences": {},
  "source": "// SPDX-License-Identifier: MIT\r\n\r\n// SPDX-License-Identifier: Something Else\r\npragma solidity 0.8.4;\r\n\r\ncontract Healthcare {\r\n    mapping(address => uint256) public userID;\r\n    uint256 public numberOfUsers;\r\n\r\n    struct User {\r\n        address userPK;\r\n        string userName;\r\n        string userRole;\r\n    }\r\n    User[] public users;\r\n\r\n    constructor() {\r\n        numberOfUsers = 0;\r\n        users.push(User(msg.sender,\"Admin\",\"Admin\"));\r\n    }\r\n\r\n    function addUser(string memory userName, address userAddr,string memory userRole) public{\r\n        if (userID[userAddr] == 0 && userAddr!=msg.sender) {\r\n            userID[userAddr] = users.length;\r\n            users.push(User(userAddr, userName, userRole));\r\n            numberOfUsers = numberOfUsers + 1;\r\n        }\r\n    }\r\n    \r\n    function updateUserInfo(string memory userName,string memory userRole) public payable{\r\n        uint256 id = userID[msg.sender];\r\n        if(id!=0){\r\n        users[id].userName=userName;\r\n        users[id].userRole=userRole;\r\n        }\r\n    }\r\n    \r\n    function showId() public view returns (uint256) {\r\n        return (numberOfUsers);\r\n    }\r\n}\r\n",
  "sourcePath": "E:/BE_project/project/contracts/Healthcare.sol",
  "compiler": {
    "name": "solc",
    "version": "0.8.4+commit.c7e474f2.Emscripten.clang"
  },
  "schemaVersion": "3.3.1",
  "updatedAt": "2021-05-09T20:12:05.931Z",
  "networkType": "ethereum",
  "devdoc": {
    "kind": "dev",
    "methods": {},
    "version": 1
  },
  "userdoc": {
    "kind": "user",
    "methods": {},
    "version": 1
  }
}