{
  "contractName": "Healthcare",
  "abi": [
    {
      "inputs": [
        {
          "internalType": "string",
          "name": "userName",
          "type": "string"
        },
        {
          "internalType": "address",
          "name": "userAddr",
          "type": "address"
        },
        {
          "internalType": "string",
          "name": "userRole",
          "type": "string"
        }
      ],
      "name": "addUser",
      "outputs": [],
      "stateMutability": "nonpayable",
      "type": "function"
    },
    {
      "inputs": [
        {
          "internalType": "string",
          "name": "fName",
          "type": "string"
        },
        {
          "internalType": "string",
          "name": "mName",
          "type": "string"
        },
        {
          "internalType": "string",
          "name": "lName",
          "type": "string"
        },
        {
          "internalType": "bool",
          "name": "gender",
          "type": "bool"
        },
        {
          "internalType": "uint8",
          "name": "age",
          "type": "uint8"
        }
      ],
      "name": "updateUserInfo",
      "outputs": [],
      "stateMutability": "nonpayable",
      "type": "function"
    },
    {
      "inputs": [],
      "name": "showUsersCount",
      "outputs": [
        {
          "internalType": "uint256",
          "name": "",
          "type": "uint256"
        }
      ],
      "stateMutability": "view",
      "type": "function",
      "constant": true
    },
    {
      "inputs": [
        {
          "internalType": "address",
          "name": "userAddr",
          "type": "address"
        }
      ],
      "name": "showAccInfo",
      "outputs": [
        {
          "internalType": "address",
          "name": "Account",
          "type": "address"
        },
        {
          "internalType": "string",
          "name": "UserName",
          "type": "string"
        },
        {
          "internalType": "string",
          "name": "UserRole",
          "type": "string"
        }
      ],
      "stateMutability": "view",
      "type": "function",
      "constant": true
    },
    {
      "inputs": [
        {
          "internalType": "address",
          "name": "userAddr",
          "type": "address"
        }
      ],
      "name": "showPersonalInfo",
      "outputs": [
        {
          "internalType": "string",
          "name": "FirstName",
          "type": "string"
        },
        {
          "internalType": "string",
          "name": "MiddleName",
          "type": "string"
        },
        {
          "internalType": "string",
          "name": "LastName",
          "type": "string"
        },
        {
          "internalType": "string",
          "name": "Gender",
          "type": "string"
        },
        {
          "internalType": "uint8",
          "name": "Age",
          "type": "uint8"
        },
        {
          "internalType": "uint256",
          "name": "TotalRecords",
          "type": "uint256"
        }
      ],
      "stateMutability": "view",
      "type": "function",
      "constant": true
    },
    {
      "inputs": [
        {
          "internalType": "address",
          "name": "userAddr",
          "type": "address"
        }
      ],
      "name": "showUserName",
      "outputs": [
        {
          "internalType": "string",
          "name": "UserName",
          "type": "string"
        }
      ],
      "stateMutability": "view",
      "type": "function",
      "constant": true
    },
    {
      "inputs": [
        {
          "internalType": "string",
          "name": "index",
          "type": "string"
        },
        {
          "internalType": "address",
          "name": "userAddr",
          "type": "address"
        },
        {
          "internalType": "string",
          "name": "_reason",
          "type": "string"
        },
        {
          "internalType": "string",
          "name": "_desc",
          "type": "string"
        }
      ],
      "name": "addRecord",
      "outputs": [],
      "stateMutability": "payable",
      "type": "function",
      "payable": true
    },
    {
      "inputs": [
        {
          "internalType": "string",
          "name": "index",
          "type": "string"
        },
        {
          "internalType": "string",
          "name": "hash",
          "type": "string"
        }
      ],
      "name": "addMedicalDocs",
      "outputs": [],
      "stateMutability": "payable",
      "type": "function",
      "payable": true
    },
    {
      "inputs": [
        {
          "internalType": "string",
          "name": "index",
          "type": "string"
        },
        {
          "internalType": "string",
          "name": "hash",
          "type": "string"
        }
      ],
      "name": "addBills",
      "outputs": [],
      "stateMutability": "payable",
      "type": "function",
      "payable": true
    },
    {
      "inputs": [
        {
          "internalType": "string",
          "name": "index",
          "type": "string"
        }
      ],
      "name": "showRecord",
      "outputs": [
        {
          "internalType": "string",
          "name": "Reason",
          "type": "string"
        },
        {
          "internalType": "string",
          "name": "Description",
          "type": "string"
        },
        {
          "internalType": "string[]",
          "name": "MedicalDocs",
          "type": "string[]"
        },
        {
          "internalType": "string[]",
          "name": "Bills",
          "type": "string[]"
        }
      ],
      "stateMutability": "view",
      "type": "function",
      "constant": true
    },
    {
      "inputs": [
        {
          "internalType": "bool",
          "name": "_generated",
          "type": "bool"
        },
        {
          "internalType": "address",
          "name": "userAddr",
          "type": "address"
        },
        {
          "internalType": "string",
          "name": "_key",
          "type": "string"
        }
      ],
      "name": "createClaimRequest",
      "outputs": [],
      "stateMutability": "payable",
      "type": "function",
      "payable": true
    },
    {
      "inputs": [
        {
          "internalType": "address",
          "name": "userAddr",
          "type": "address"
        }
      ],
      "name": "showClaimRequest",
      "outputs": [
        {
          "internalType": "string",
          "name": "key",
          "type": "string"
        },
        {
          "internalType": "bool",
          "name": "generated",
          "type": "bool"
        },
        {
          "internalType": "bool",
          "name": "granted",
          "type": "bool"
        }
      ],
      "stateMutability": "view",
      "type": "function",
      "constant": true
    },
    {
      "inputs": [
        {
          "internalType": "address",
          "name": "userAddr",
          "type": "address"
        }
      ],
      "name": "grantClaimRequest",
      "outputs": [],
      "stateMutability": "payable",
      "type": "function",
      "payable": true
    },
    {
      "inputs": [
        {
          "internalType": "address",
          "name": "userAddr",
          "type": "address"
        }
      ],
      "name": "deleteClaimRequest",
      "outputs": [],
      "stateMutability": "payable",
      "type": "function",
      "payable": true
    }
  ],
  "bytecode": "0x6080604052336000806101000a81548173ffffffffffffffffffffffffffffffffffffffff021916908373ffffffffffffffffffffffffffffffffffffffff16021790555034801561005057600080fd5b5061303c806100606000396000f3fe6080604052600436106100dd5760003560e01c80637e7fa05e1161007f578063c04357c711610059578063c04357c714610283578063c6cd372d1461029f578063d4b31731146102dc578063ff6fe1fd14610305576100dd565b80637e7fa05e1461020c578063b087a2ed14610228578063b66520ce14610267576100dd565b80633d207c80116100bb5780633d207c801461018f5780635858d03f146101ab57806361a33ed9146101c75780636616c266146101e3576100dd565b8063023a3bf5146100e2578063200b0ff2146101245780632067bea71461014f575b600080fd5b3480156100ee57600080fd5b506101096004803603810190610104919061256c565b610344565b60405161011b96959493929190612b80565b60405180910390f35b34801561013057600080fd5b5061013961072e565b6040516101469190612c5d565b60405180910390f35b34801561015b57600080fd5b50610176600480360381019061017191906125fc565b61073b565b6040516101869493929190612b1f565b60405180910390f35b6101a960048036038101906101a4919061256c565b610a92565b005b6101c560048036038101906101c09190612767565b610af0565b005b6101e160048036038101906101dc9190612767565b610b4f565b005b3480156101ef57600080fd5b5061020a600480360381019061020591906127d3565b610bae565b005b610226600480360381019061022191906126bc565b610dfe565b005b34801561023457600080fd5b5061024f600480360381019061024a919061256c565b611208565b60405161025e93929190612a7a565b60405180910390f35b610281600480360381019061027c9190612595565b6114df565b005b61029d6004803603810190610298919061256c565b611860565b005b3480156102ab57600080fd5b506102c660048036038101906102c1919061256c565b61197f565b6040516102d39190612abf565b60405180910390f35b3480156102e857600080fd5b5061030360048036038101906102fe919061263d565b611a53565b005b34801561031157600080fd5b5061032c6004803603810190610327919061256c565b6121de565b60405161033b93929190612ae1565b60405180910390f35b6060806060806000806060600160008973ffffffffffffffffffffffffffffffffffffffff1673ffffffffffffffffffffffffffffffffffffffff16815260200190815260200160002060060160009054906101000a900460ff16156103e1576040518060400160405280600681526020017f46656d616c650000000000000000000000000000000000000000000000000000815250905061041a565b6040518060400160405280600481526020017f4d616c650000000000000000000000000000000000000000000000000000000081525090505b600160008973ffffffffffffffffffffffffffffffffffffffff1673ffffffffffffffffffffffffffffffffffffffff168152602001908152602001600020600301600160008a73ffffffffffffffffffffffffffffffffffffffff1673ffffffffffffffffffffffffffffffffffffffff168152602001908152602001600020600401600160008b73ffffffffffffffffffffffffffffffffffffffff1673ffffffffffffffffffffffffffffffffffffffff16815260200190815260200160002060050183600160008d73ffffffffffffffffffffffffffffffffffffffff1673ffffffffffffffffffffffffffffffffffffffff16815260200190815260200160002060060160019054906101000a900460ff16600160008e73ffffffffffffffffffffffffffffffffffffffff1673ffffffffffffffffffffffffffffffffffffffff1681526020019081526020016000206007015485805461058090612dd6565b80601f01602080910402602001604051908101604052809291908181526020018280546105ac90612dd6565b80156105f95780601f106105ce576101008083540402835291602001916105f9565b820191906000526020600020905b8154815290600101906020018083116105dc57829003601f168201915b5050505050955084805461060c90612dd6565b80601f016020809104026020016040519081016040528092919081815260200182805461063890612dd6565b80156106855780601f1061065a57610100808354040283529160200191610685565b820191906000526020600020905b81548152906001019060200180831161066857829003601f168201915b5050505050945083805461069890612dd6565b80601f01602080910402602001604051908101604052809291908181526020018280546106c490612dd6565b80156107115780601f106106e657610100808354040283529160200191610711565b820191906000526020600020905b8154815290600101906020018083116106f457829003601f168201915b505050505093509650965096509650965096505091939550919395565b6000600280549050905090565b6060806060806003856040516107519190612a63565b90815260200160405180910390206000016003866040516107729190612a63565b90815260200160405180910390206001016003876040516107939190612a63565b90815260200160405180910390206002016003886040516107b49190612a63565b90815260200160405180910390206003018380546107d190612dd6565b80601f01602080910402602001604051908101604052809291908181526020018280546107fd90612dd6565b801561084a5780601f1061081f5761010080835404028352916020019161084a565b820191906000526020600020905b81548152906001019060200180831161082d57829003601f168201915b5050505050935082805461085d90612dd6565b80601f016020809104026020016040519081016040528092919081815260200182805461088990612dd6565b80156108d65780601f106108ab576101008083540402835291602001916108d6565b820191906000526020600020905b8154815290600101906020018083116108b957829003601f168201915b5050505050925081805480602002602001604051908101604052809291908181526020016000905b828210156109aa57838290600052602060002001805461091d90612dd6565b80601f016020809104026020016040519081016040528092919081815260200182805461094990612dd6565b80156109965780601f1061096b57610100808354040283529160200191610996565b820191906000526020600020905b81548152906001019060200180831161097957829003601f168201915b5050505050815260200190600101906108fe565b50505050915080805480602002602001604051908101604052809291908181526020016000905b82821015610a7d5783829060005260206000200180546109f090612dd6565b80601f0160208091040260200160405190810160405280929190818152602001828054610a1c90612dd6565b8015610a695780601f10610a3e57610100808354040283529160200191610a69565b820191906000526020600020905b815481529060010190602001808311610a4c57829003601f168201915b5050505050815260200190600101906109d1565b50505050905093509350935093509193509193565b6001600460008373ffffffffffffffffffffffffffffffffffffffff1673ffffffffffffffffffffffffffffffffffffffff16815260200190815260200160002060020160016101000a81548160ff02191690831515021790555050565b600382604051610b009190612a63565b908152602001604051809103902060030181908060018154018082558091505060019003906000526020600020016000909190919091509080519060200190610b4a92919061235e565b505050565b600382604051610b5f9190612a63565b908152602001604051809103902060020181908060018154018082558091505060019003906000526020600020016000909190919091509080519060200190610ba992919061235e565b505050565b60008054906101000a900473ffffffffffffffffffffffffffffffffffffffff1673ffffffffffffffffffffffffffffffffffffffff163373ffffffffffffffffffffffffffffffffffffffff161415610c3d576040517f08c379a0000000000000000000000000000000000000000000000000000000008152600401610c3490612bfd565b60405180910390fd5b84600160003373ffffffffffffffffffffffffffffffffffffffff1673ffffffffffffffffffffffffffffffffffffffff1681526020019081526020016000206003019080519060200190610c9392919061235e565b5083600160003373ffffffffffffffffffffffffffffffffffffffff1673ffffffffffffffffffffffffffffffffffffffff1681526020019081526020016000206004019080519060200190610cea92919061235e565b5082600160003373ffffffffffffffffffffffffffffffffffffffff1673ffffffffffffffffffffffffffffffffffffffff1681526020019081526020016000206005019080519060200190610d4192919061235e565b5081600160003373ffffffffffffffffffffffffffffffffffffffff1673ffffffffffffffffffffffffffffffffffffffff16815260200190815260200160002060060160006101000a81548160ff02191690831515021790555080600160003373ffffffffffffffffffffffffffffffffffffffff1673ffffffffffffffffffffffffffffffffffffffff16815260200190815260200160002060060160016101000a81548160ff021916908360ff1602179055505050505050565b6000600385604051610e109190612a63565b9081526020016040518091039020604051806080016040529081600082018054610e3990612dd6565b80601f0160208091040260200160405190810160405280929190818152602001828054610e6590612dd6565b8015610eb25780601f10610e8757610100808354040283529160200191610eb2565b820191906000526020600020905b815481529060010190602001808311610e9557829003601f168201915b50505050508152602001600182018054610ecb90612dd6565b80601f0160208091040260200160405190810160405280929190818152602001828054610ef790612dd6565b8015610f445780601f10610f1957610100808354040283529160200191610f44565b820191906000526020600020905b815481529060010190602001808311610f2757829003601f168201915b5050505050815260200160028201805480602002602001604051908101604052809291908181526020016000905b8282101561101e578382906000526020600020018054610f9190612dd6565b80601f0160208091040260200160405190810160405280929190818152602001828054610fbd90612dd6565b801561100a5780601f10610fdf5761010080835404028352916020019161100a565b820191906000526020600020905b815481529060010190602001808311610fed57829003601f168201915b505050505081526020019060010190610f72565b50505050815260200160038201805480602002602001604051908101604052809291908181526020016000905b828210156110f757838290600052602060002001805461106a90612dd6565b80601f016020809104026020016040519081016040528092919081815260200182805461109690612dd6565b80156110e35780601f106110b8576101008083540402835291602001916110e3565b820191906000526020600020905b8154815290600101906020018083116110c657829003601f168201915b50505050508152602001906001019061104b565b50505050815250509050828160000181905250818160200181905250806003866040516111249190612a63565b9081526020016040518091039020600082015181600001908051906020019061114e92919061235e565b50602082015181600101908051906020019061116b92919061235e565b5060408201518160020190805190602001906111889291906123e4565b5060608201518160030190805190602001906111a59291906123e4565b50905050600160008573ffffffffffffffffffffffffffffffffffffffff1673ffffffffffffffffffffffffffffffffffffffff16815260200190815260200160002060070160008154809291906111fc90612e39565b91905055505050505050565b60006060808373ffffffffffffffffffffffffffffffffffffffff163373ffffffffffffffffffffffffffffffffffffffff16148015611294575060008054906101000a900473ffffffffffffffffffffffffffffffffffffffff1673ffffffffffffffffffffffffffffffffffffffff168473ffffffffffffffffffffffffffffffffffffffff1614155b6112d3576040517f08c379a00000000000000000000000000000000000000000000000000000000081526004016112ca90612c3d565b60405180910390fd5b600160008573ffffffffffffffffffffffffffffffffffffffff1673ffffffffffffffffffffffffffffffffffffffff16815260200190815260200160002060000160009054906101000a900473ffffffffffffffffffffffffffffffffffffffff16600160008673ffffffffffffffffffffffffffffffffffffffff1673ffffffffffffffffffffffffffffffffffffffff168152602001908152602001600020600101600160008773ffffffffffffffffffffffffffffffffffffffff1673ffffffffffffffffffffffffffffffffffffffff1681526020019081526020016000206002018180546113c690612dd6565b80601f01602080910402602001604051908101604052809291908181526020018280546113f290612dd6565b801561143f5780601f106114145761010080835404028352916020019161143f565b820191906000526020600020905b81548152906001019060200180831161142257829003601f168201915b5050505050915080805461145290612dd6565b80601f016020809104026020016040519081016040528092919081815260200182805461147e90612dd6565b80156114cb5780601f106114a0576101008083540402835291602001916114cb565b820191906000526020600020905b8154815290600101906020018083116114ae57829003601f168201915b505050505090509250925092509193909250565b3373ffffffffffffffffffffffffffffffffffffffff168273ffffffffffffffffffffffffffffffffffffffff16148015611566575060008054906101000a900473ffffffffffffffffffffffffffffffffffffffff1673ffffffffffffffffffffffffffffffffffffffff163373ffffffffffffffffffffffffffffffffffffffff1614155b6115a5576040517f08c379a000000000000000000000000000000000000000000000000000000000815260040161159c90612c1d565b60405180910390fd5b6000600460008473ffffffffffffffffffffffffffffffffffffffff1673ffffffffffffffffffffffffffffffffffffffff1681526020019081526020016000206040518060800160405290816000820160009054906101000a900473ffffffffffffffffffffffffffffffffffffffff1673ffffffffffffffffffffffffffffffffffffffff1673ffffffffffffffffffffffffffffffffffffffff16815260200160018201805461165790612dd6565b80601f016020809104026020016040519081016040528092919081815260200182805461168390612dd6565b80156116d05780601f106116a5576101008083540402835291602001916116d0565b820191906000526020600020905b8154815290600101906020018083116116b357829003601f168201915b505050505081526020016002820160009054906101000a900460ff161515151581526020016002820160019054906101000a900460ff161515151581525050905082816000019073ffffffffffffffffffffffffffffffffffffffff16908173ffffffffffffffffffffffffffffffffffffffff168152505081816020018190525083816040019015159081151581525050600081606001901515908115158152505080600460008573ffffffffffffffffffffffffffffffffffffffff1673ffffffffffffffffffffffffffffffffffffffff16815260200190815260200160002060008201518160000160006101000a81548173ffffffffffffffffffffffffffffffffffffffff021916908373ffffffffffffffffffffffffffffffffffffffff160217905550602082015181600101908051906020019061181692919061235e565b5060408201518160020160006101000a81548160ff02191690831515021790555060608201518160020160016101000a81548160ff02191690831515021790555090505050505050565b60405180602001604052806000815250600460008373ffffffffffffffffffffffffffffffffffffffff1673ffffffffffffffffffffffffffffffffffffffff16815260200190815260200160002060010190805190602001906118c592919061235e565b506000600460008373ffffffffffffffffffffffffffffffffffffffff1673ffffffffffffffffffffffffffffffffffffffff16815260200190815260200160002060020160006101000a81548160ff0219169083151502179055506000600460008373ffffffffffffffffffffffffffffffffffffffff1673ffffffffffffffffffffffffffffffffffffffff16815260200190815260200160002060020160016101000a81548160ff02191690831515021790555050565b6060600160008373ffffffffffffffffffffffffffffffffffffffff1673ffffffffffffffffffffffffffffffffffffffff16815260200190815260200160002060010180546119ce90612dd6565b80601f01602080910402602001604051908101604052809291908181526020018280546119fa90612dd6565b8015611a475780601f10611a1c57610100808354040283529160200191611a47565b820191906000526020600020905b815481529060010190602001808311611a2a57829003601f168201915b50505050509050919050565b3373ffffffffffffffffffffffffffffffffffffffff168273ffffffffffffffffffffffffffffffffffffffff16148015611ada575060008054906101000a900473ffffffffffffffffffffffffffffffffffffffff1673ffffffffffffffffffffffffffffffffffffffff163373ffffffffffffffffffffffffffffffffffffffff1614155b611b19576040517f08c379a0000000000000000000000000000000000000000000000000000000008152600401611b1090612c1d565b60405180910390fd5b6000600160008473ffffffffffffffffffffffffffffffffffffffff1673ffffffffffffffffffffffffffffffffffffffff168152602001908152602001600020604051806101200160405290816000820160009054906101000a900473ffffffffffffffffffffffffffffffffffffffff1673ffffffffffffffffffffffffffffffffffffffff1673ffffffffffffffffffffffffffffffffffffffff168152602001600182018054611bcc90612dd6565b80601f0160208091040260200160405190810160405280929190818152602001828054611bf890612dd6565b8015611c455780601f10611c1a57610100808354040283529160200191611c45565b820191906000526020600020905b815481529060010190602001808311611c2857829003601f168201915b50505050508152602001600282018054611c5e90612dd6565b80601f0160208091040260200160405190810160405280929190818152602001828054611c8a90612dd6565b8015611cd75780601f10611cac57610100808354040283529160200191611cd7565b820191906000526020600020905b815481529060010190602001808311611cba57829003601f168201915b50505050508152602001600382018054611cf090612dd6565b80601f0160208091040260200160405190810160405280929190818152602001828054611d1c90612dd6565b8015611d695780601f10611d3e57610100808354040283529160200191611d69565b820191906000526020600020905b815481529060010190602001808311611d4c57829003601f168201915b50505050508152602001600482018054611d8290612dd6565b80601f0160208091040260200160405190810160405280929190818152602001828054611dae90612dd6565b8015611dfb5780601f10611dd057610100808354040283529160200191611dfb565b820191906000526020600020905b815481529060010190602001808311611dde57829003601f168201915b50505050508152602001600582018054611e1490612dd6565b80601f0160208091040260200160405190810160405280929190818152602001828054611e4090612dd6565b8015611e8d5780601f10611e6257610100808354040283529160200191611e8d565b820191906000526020600020905b815481529060010190602001808311611e7057829003601f168201915b505050505081526020016006820160009054906101000a900460ff161515151581526020016006820160019054906101000a900460ff1660ff1660ff168152602001600782015481525050905082816000019073ffffffffffffffffffffffffffffffffffffffff16908173ffffffffffffffffffffffffffffffffffffffff16815250508381602001819052508181604001819052506040518060400160405280600a81526020017f4669727374204e616d650000000000000000000000000000000000000000000081525081606001819052506040518060400160405280600b81526020017f4d6964646c65204e616d6500000000000000000000000000000000000000000081525081608001819052506040518060400160405280600981526020017f4c617374204e616d6500000000000000000000000000000000000000000000008152508160a0018190525060008160c001901515908115158152505060008160e0019060ff16908160ff168152505060008161010001818152505080600160008573ffffffffffffffffffffffffffffffffffffffff1673ffffffffffffffffffffffffffffffffffffffff16815260200190815260200160002060008201518160000160006101000a81548173ffffffffffffffffffffffffffffffffffffffff021916908373ffffffffffffffffffffffffffffffffffffffff16021790555060208201518160010190805190602001906120b192919061235e565b5060408201518160020190805190602001906120ce92919061235e565b5060608201518160030190805190602001906120eb92919061235e565b50608082015181600401908051906020019061210892919061235e565b5060a082015181600501908051906020019061212592919061235e565b5060c08201518160060160006101000a81548160ff02191690831515021790555060e08201518160060160016101000a81548160ff021916908360ff16021790555061010082015181600701559050506002839080600181540180825580915050600190039060005260206000200160009091909190916101000a81548173ffffffffffffffffffffffffffffffffffffffff021916908373ffffffffffffffffffffffffffffffffffffffff16021790555050505050565b6060600080600460008573ffffffffffffffffffffffffffffffffffffffff1673ffffffffffffffffffffffffffffffffffffffff168152602001908152602001600020600101600460008673ffffffffffffffffffffffffffffffffffffffff1673ffffffffffffffffffffffffffffffffffffffff16815260200190815260200160002060020160009054906101000a900460ff16600460008773ffffffffffffffffffffffffffffffffffffffff1673ffffffffffffffffffffffffffffffffffffffff16815260200190815260200160002060020160019054906101000a900460ff168280546122d190612dd6565b80601f01602080910402602001604051908101604052809291908181526020018280546122fd90612dd6565b801561234a5780601f1061231f5761010080835404028352916020019161234a565b820191906000526020600020905b81548152906001019060200180831161232d57829003601f168201915b505050505092509250925092509193909250565b82805461236a90612dd6565b90600052602060002090601f01602090048101928261238c57600085556123d3565b82601f106123a557805160ff19168380011785556123d3565b828001600101855582156123d3579182015b828111156123d25782518255916020019190600101906123b7565b5b5090506123e09190612444565b5090565b828054828255906000526020600020908101928215612433579160200282015b8281111561243257825182908051906020019061242292919061235e565b5091602001919060010190612404565b5b5090506124409190612461565b5090565b5b8082111561245d576000816000905550600101612445565b5090565b5b8082111561248157600081816124789190612485565b50600101612462565b5090565b50805461249190612dd6565b6000825580601f106124a357506124c2565b601f0160209004906000526020600020908101906124c19190612444565b5b50565b60006124d86124d384612c9d565b612c78565b9050828152602081018484840111156124f057600080fd5b6124fb848285612d94565b509392505050565b60008135905061251281612fc1565b92915050565b60008135905061252781612fd8565b92915050565b600082601f83011261253e57600080fd5b813561254e8482602086016124c5565b91505092915050565b60008135905061256681612fef565b92915050565b60006020828403121561257e57600080fd5b600061258c84828501612503565b91505092915050565b6000806000606084860312156125aa57600080fd5b60006125b886828701612518565b93505060206125c986828701612503565b925050604084013567ffffffffffffffff8111156125e657600080fd5b6125f28682870161252d565b9150509250925092565b60006020828403121561260e57600080fd5b600082013567ffffffffffffffff81111561262857600080fd5b6126348482850161252d565b91505092915050565b60008060006060848603121561265257600080fd5b600084013567ffffffffffffffff81111561266c57600080fd5b6126788682870161252d565b935050602061268986828701612503565b925050604084013567ffffffffffffffff8111156126a657600080fd5b6126b28682870161252d565b9150509250925092565b600080600080608085870312156126d257600080fd5b600085013567ffffffffffffffff8111156126ec57600080fd5b6126f88782880161252d565b945050602061270987828801612503565b935050604085013567ffffffffffffffff81111561272657600080fd5b6127328782880161252d565b925050606085013567ffffffffffffffff81111561274f57600080fd5b61275b8782880161252d565b91505092959194509250565b6000806040838503121561277a57600080fd5b600083013567ffffffffffffffff81111561279457600080fd5b6127a08582860161252d565b925050602083013567ffffffffffffffff8111156127bd57600080fd5b6127c98582860161252d565b9150509250929050565b600080600080600060a086880312156127eb57600080fd5b600086013567ffffffffffffffff81111561280557600080fd5b6128118882890161252d565b955050602086013567ffffffffffffffff81111561282e57600080fd5b61283a8882890161252d565b945050604086013567ffffffffffffffff81111561285757600080fd5b6128638882890161252d565b935050606061287488828901612518565b925050608061288588828901612557565b9150509295509295909350565b600061289e8383612939565b905092915050565b6128af81612d3f565b82525050565b60006128c082612cde565b6128ca8185612d01565b9350836020820285016128dc85612cce565b8060005b8581101561291857848403895281516128f98582612892565b945061290483612cf4565b925060208a019950506001810190506128e0565b50829750879550505050505092915050565b61293381612d51565b82525050565b600061294482612ce9565b61294e8185612d12565b935061295e818560208601612da3565b61296781612f0f565b840191505092915050565b600061297d82612ce9565b6129878185612d23565b9350612997818560208601612da3565b6129a081612f0f565b840191505092915050565b60006129b682612ce9565b6129c08185612d34565b93506129d0818560208601612da3565b80840191505092915050565b60006129e9601c83612d23565b91506129f482612f20565b602082019050919050565b6000612a0c601783612d23565b9150612a1782612f49565b602082019050919050565b6000612a2f603783612d23565b9150612a3a82612f72565b604082019050919050565b612a4e81612d7d565b82525050565b612a5d81612d87565b82525050565b6000612a6f82846129ab565b915081905092915050565b6000606082019050612a8f60008301866128a6565b8181036020830152612aa18185612972565b90508181036040830152612ab58184612972565b9050949350505050565b60006020820190508181036000830152612ad98184612972565b905092915050565b60006060820190508181036000830152612afb8186612972565b9050612b0a602083018561292a565b612b17604083018461292a565b949350505050565b60006080820190508181036000830152612b398187612972565b90508181036020830152612b4d8186612972565b90508181036040830152612b6181856128b5565b90508181036060830152612b7581846128b5565b905095945050505050565b600060c0820190508181036000830152612b9a8189612972565b90508181036020830152612bae8188612972565b90508181036040830152612bc28187612972565b90508181036060830152612bd68186612972565b9050612be56080830185612a54565b612bf260a0830184612a45565b979650505050505050565b60006020820190508181036000830152612c16816129dc565b9050919050565b60006020820190508181036000830152612c36816129ff565b9050919050565b60006020820190508181036000830152612c5681612a22565b9050919050565b6000602082019050612c726000830184612a45565b92915050565b6000612c82612c93565b9050612c8e8282612e08565b919050565b6000604051905090565b600067ffffffffffffffff821115612cb857612cb7612ee0565b5b612cc182612f0f565b9050602081019050919050565b6000819050602082019050919050565b600081519050919050565b600081519050919050565b6000602082019050919050565b600082825260208201905092915050565b600082825260208201905092915050565b600082825260208201905092915050565b600081905092915050565b6000612d4a82612d5d565b9050919050565b60008115159050919050565b600073ffffffffffffffffffffffffffffffffffffffff82169050919050565b6000819050919050565b600060ff82169050919050565b82818337600083830152505050565b60005b83811015612dc1578082015181840152602081019050612da6565b83811115612dd0576000848401525b50505050565b60006002820490506001821680612dee57607f821691505b60208210811415612e0257612e01612eb1565b5b50919050565b612e1182612f0f565b810181811067ffffffffffffffff82111715612e3057612e2f612ee0565b5b80604052505050565b6000612e4482612d7d565b91507fffffffffffffffffffffffffffffffffffffffffffffffffffffffffffffffff821415612e7757612e76612e82565b5b600182019050919050565b7f4e487b7100000000000000000000000000000000000000000000000000000000600052601160045260246000fd5b7f4e487b7100000000000000000000000000000000000000000000000000000000600052602260045260246000fd5b7f4e487b7100000000000000000000000000000000000000000000000000000000600052604160045260246000fd5b6000601f19601f8301169050919050565b7f596f752063616e6e6f7420757064617465207573657220696e666f2100000000600082015250565b7f496e636f72726563742075736572206164647265737321000000000000000000600082015250565b7f596f7520646f6e27742068617665207065726d697373696f6e20746f2076696560008201527f772075736572206163636f756e742064657461696c7321000000000000000000602082015250565b612fca81612d3f565b8114612fd557600080fd5b50565b612fe181612d51565b8114612fec57600080fd5b50565b612ff881612d87565b811461300357600080fd5b5056fea264697066735822122048e750ec6cd665321a0814011bfd9cf94c55d17f9cd6888b45d50a5d5870637064736f6c63430008040033",
  "immutableReferences": {},
  "source": "// SPDX-License-Identifier: MIT\r\n\r\n// SPDX-License-Identifier: Something Else\r\npragma solidity 0.8.4;\r\n\r\ncontract Healthcare {\r\n    address internal owner = msg.sender; //store account address that deployed the smart contract\r\n\r\n    struct User {                       //For storing user info\r\n        address userPK;\r\n        string userName;\r\n        string userRole;\r\n        string firstName;\r\n        string middleName;\r\n        string lastName;\r\n        bool gender;\r\n        uint8 age;\r\n        uint noOfRecords;\r\n    }\r\n    mapping(address => User) user;\r\n    address[] usersArray;               //To get total number of users\r\n    \r\n    struct Document{                    //For storing user documents using unique key made of userAddr_index\r\n        string reason;\r\n        string desc;\r\n        string[] medicalDocs;\r\n        string[] bills;\r\n    }\r\n    mapping(string=>Document) documents;\r\n    \r\n    struct InsuranceClaim{\r\n        address userPK;\r\n        string key;\r\n        bool generated;\r\n        bool granted;\r\n    }\r\n    mapping(address => InsuranceClaim) claim;\r\n    \r\n    function addUser(string memory userName, address userAddr,string memory userRole) public{\r\n        require(userAddr==msg.sender && msg.sender!=owner,\"Incorrect user address!\");\r\n            User memory u = user[userAddr];\r\n            u.userPK=userAddr;\r\n            u.userName=userName;\r\n            u.userRole=userRole;\r\n            u.firstName=\"First Name\";\r\n            u.middleName=\"Middle Name\";\r\n            u.lastName=\"Last Name\";\r\n            u.gender=false;\r\n            u.age=0;\r\n            u.noOfRecords=0;\r\n            user[userAddr]=u;\r\n            usersArray.push(userAddr);\r\n    }\r\n    \r\n    function updateUserInfo(string memory fName,string memory mName,string memory lName,bool gender, uint8 age) public{\r\n        require(msg.sender!=owner,\"You cannot update user info!\");\r\n        user[msg.sender].firstName=fName;\r\n        user[msg.sender].middleName=mName;\r\n        user[msg.sender].lastName=lName;\r\n        user[msg.sender].gender=gender;\r\n        user[msg.sender].age=age;\r\n    }\r\n    \r\n    function showUsersCount() public view returns(uint256){\r\n        return(usersArray.length);\r\n    }\r\n    \r\n    function showAccInfo(address userAddr) public view returns(address Account,string memory UserName,string memory UserRole){\r\n        require(msg.sender==userAddr && userAddr != owner ,\"You don't have permission to view user account details!\");\r\n        return(user[userAddr].userPK,user[userAddr].userName,user[userAddr].userRole); \r\n    }\r\n    \r\n    function showPersonalInfo(address userAddr) public view returns(string memory FirstName,string memory MiddleName,string memory LastName,string memory Gender,uint8 Age,uint TotalRecords){\r\n        string memory gender;\r\n        if(user[userAddr].gender)\r\n            gender=\"Female\";\r\n        else\r\n            gender=\"Male\";\r\n        return(user[userAddr].firstName,user[userAddr].middleName,user[userAddr].lastName,gender,user[userAddr].age,user[userAddr].noOfRecords); \r\n    }\r\n    \r\n    function showUserName(address userAddr) public view returns(string memory UserName){\r\n        return(user[userAddr].userName);\r\n    }\r\n        \r\n    function addRecord(string memory index,address userAddr, string memory _reason,string memory _desc) public payable{\r\n        Document memory d = documents[index];\r\n        d.reason=_reason;\r\n        d.desc=_desc;\r\n        documents[index]=d;\r\n        user[userAddr].noOfRecords++;\r\n    }\r\n    function addMedicalDocs(string memory index,string memory hash) public payable{\r\n     documents[index].medicalDocs.push(hash);   \r\n    }\r\n    \r\n    function addBills(string memory index,string memory hash) public payable{\r\n     documents[index].bills.push(hash);   \r\n    }\r\n    \r\n    function showRecord(string memory index) public view returns(string memory Reason, string memory Description,string[] memory MedicalDocs,string[] memory Bills){\r\n        return(documents[index].reason,documents[index].desc, documents[index].medicalDocs,documents[index].bills);\r\n    }\r\n    \r\n    function createClaimRequest(bool _generated,address userAddr,string memory _key) public payable{\r\n        require(userAddr==msg.sender && msg.sender!=owner,\"Incorrect user address!\");\r\n        InsuranceClaim memory ic= claim[userAddr];\r\n        ic.userPK=userAddr;\r\n        ic.key=_key;\r\n        ic.generated=_generated;\r\n        ic.granted=false;\r\n        claim[userAddr]=ic;\r\n    }\r\n    \r\n    function showClaimRequest(address userAddr) public view returns(string memory key,bool generated,bool granted){\r\n        return(claim[userAddr].key,claim[userAddr].generated,claim[userAddr].granted);\r\n    }\r\n    \r\n    function grantClaimRequest(address userAddr) public payable{\r\n        claim[userAddr].granted=true;\r\n    }\r\n    \r\n    function deleteClaimRequest(address userAddr) public payable{\r\n        claim[userAddr].key='';\r\n        claim[userAddr].generated=false;\r\n        claim[userAddr].granted=false;\r\n    }\r\n    \r\n}\r\n",
  "sourcePath": "E:/BE_project/project/contracts/Healthcare.sol",
  "compiler": {
    "name": "solc",
    "version": "0.8.4+commit.c7e474f2.Emscripten.clang"
  },
  "schemaVersion": "3.3.1",
  "updatedAt": "2021-05-18T14:14:39.615Z",
  "networkType": "ethereum",
  "devdoc": {
    "kind": "dev",
    "methods": {},
    "version": 1
  },
  "userdoc": {
    "kind": "user",
    "methods": {},
    "version": 1
  }
}